{
  "_format": "hh-sol-artifact-1",
  "contractName": "SFTFactory",
  "sourceName": "contracts/SFTFactory.sol",
  "abi": [
    {
      "inputs": [
        {
          "internalType": "address[]",
          "name": "listOfEmployees",
          "type": "address[]"
        },
        {
          "internalType": "string",
          "name": "token_uri",
          "type": "string"
        }
      ],
      "name": "multiMint",
      "outputs": [
        {
          "internalType": "address",
          "name": "",
          "type": "address"
        }
      ],
      "stateMutability": "nonpayable",
      "type": "function"
    }
  ],
  "bytecode": "0x608060405234801561001057600080fd5b5061485b806100206000396000f3fe60806040523480156200001157600080fd5b50600436106200002e5760003560e01c80639c6327841462000033575b600080fd5b6200005160048036038101906200004b91906200049c565b62000069565b60405162000060919062000532565b60405180910390f35b600080826040516200007b90620001d8565b620000879190620005e2565b604051809103906000f080158015620000a4573d6000803e3d6000fd5b5090508073ffffffffffffffffffffffffffffffffffffffff1663862440e26001856040518363ffffffff1660e01b8152600401620000e59291906200065d565b600060405180830381600087803b1580156200010057600080fd5b505af115801562000115573d6000803e3d6000fd5b5050505060005b8451811015620001cd578173ffffffffffffffffffffffffffffffffffffffff1663156e29f686838151811062000158576200015762000691565b5b60200260200101516001806040518463ffffffff1660e01b81526004016200018393929190620006c0565b600060405180830381600087803b1580156200019e57600080fd5b505af1158015620001b3573d6000803e3d6000fd5b505050508080620001c4906200072c565b9150506200011c565b508091505092915050565b6140ab806200077b83390190565b6000604051905090565b600080fd5b600080fd5b600080fd5b6000601f19601f8301169050919050565b7f4e487b7100000000000000000000000000000000000000000000000000000000600052604160045260246000fd5b6200024a82620001ff565b810181811067ffffffffffffffff821117156200026c576200026b62000210565b5b80604052505050565b600062000281620001e6565b90506200028f82826200023f565b919050565b600067ffffffffffffffff821115620002b257620002b162000210565b5b602082029050602081019050919050565b600080fd5b600073ffffffffffffffffffffffffffffffffffffffff82169050919050565b6000620002f582620002c8565b9050919050565b6200030781620002e8565b81146200031357600080fd5b50565b6000813590506200032781620002fc565b92915050565b6000620003446200033e8462000294565b62000275565b905080838252602082019050602084028301858111156200036a5762000369620002c3565b5b835b8181101562000397578062000382888262000316565b8452602084019350506020810190506200036c565b5050509392505050565b600082601f830112620003b957620003b8620001fa565b5b8135620003cb8482602086016200032d565b91505092915050565b600080fd5b600067ffffffffffffffff821115620003f757620003f662000210565b5b6200040282620001ff565b9050602081019050919050565b82818337600083830152505050565b6000620004356200042f84620003d9565b62000275565b905082815260208101848484011115620004545762000453620003d4565b5b620004618482856200040f565b509392505050565b600082601f830112620004815762000480620001fa565b5b8135620004938482602086016200041e565b91505092915050565b60008060408385031215620004b657620004b5620001f0565b5b600083013567ffffffffffffffff811115620004d757620004d6620001f5565b5b620004e585828601620003a1565b925050602083013567ffffffffffffffff811115620005095762000508620001f5565b5b620005178582860162000469565b9150509250929050565b6200052c81620002e8565b82525050565b600060208201905062000549600083018462000521565b92915050565b600081519050919050565b600082825260208201905092915050565b60005b838110156200058b5780820151818401526020810190506200056e565b838111156200059b576000848401525b50505050565b6000620005ae826200054f565b620005ba81856200055a565b9350620005cc8185602086016200056b565b620005d781620001ff565b840191505092915050565b60006020820190508181036000830152620005fe8184620005a1565b905092915050565b6000819050919050565b6000819050919050565b6000819050919050565b6000620006456200063f620006398462000606565b6200061a565b62000610565b9050919050565b620006578162000624565b82525050565b60006040820190506200067460008301856200064c565b8181036020830152620006888184620005a1565b90509392505050565b7f4e487b7100000000000000000000000000000000000000000000000000000000600052603260045260246000fd5b6000606082019050620006d7600083018662000521565b620006e660208301856200064c565b620006f560408301846200064c565b949350505050565b7f4e487b7100000000000000000000000000000000000000000000000000000000600052601160045260246000fd5b6000620007398262000610565b91507fffffffffffffffffffffffffffffffffffffffffffffffffffffffffffffffff8214156200076f576200076e620006fd565b5b60018201905091905056fe60806040523480156200001157600080fd5b50604051620040ab380380620040ab8339818101604052810190620000379190620003a8565b8062000049816200007160201b60201c565b506200006a6200005e6200008d60201b60201c565b6200009560201b60201c565b506200045e565b8060029080519060200190620000899291906200015b565b5050565b600033905090565b6000600360009054906101000a900473ffffffffffffffffffffffffffffffffffffffff16905081600360006101000a81548173ffffffffffffffffffffffffffffffffffffffff021916908373ffffffffffffffffffffffffffffffffffffffff1602179055508173ffffffffffffffffffffffffffffffffffffffff168173ffffffffffffffffffffffffffffffffffffffff167f8be0079c531659141344cd1fd0a4f28419497f9722a3daafe3b4186f6b6457e060405160405180910390a35050565b828054620001699062000428565b90600052602060002090601f0160209004810192826200018d5760008555620001d9565b82601f10620001a857805160ff1916838001178555620001d9565b82800160010185558215620001d9579182015b82811115620001d8578251825591602001919060010190620001bb565b5b509050620001e89190620001ec565b5090565b5b8082111562000207576000816000905550600101620001ed565b5090565b6000604051905090565b600080fd5b600080fd5b600080fd5b600080fd5b6000601f19601f8301169050919050565b7f4e487b7100000000000000000000000000000000000000000000000000000000600052604160045260246000fd5b620002748262000229565b810181811067ffffffffffffffff821117156200029657620002956200023a565b5b80604052505050565b6000620002ab6200020b565b9050620002b9828262000269565b919050565b600067ffffffffffffffff821115620002dc57620002db6200023a565b5b620002e78262000229565b9050602081019050919050565b60005b8381101562000314578082015181840152602081019050620002f7565b8381111562000324576000848401525b50505050565b6000620003416200033b84620002be565b6200029f565b90508281526020810184848401111562000360576200035f62000224565b5b6200036d848285620002f4565b509392505050565b600082601f8301126200038d576200038c6200021f565b5b81516200039f8482602086016200032a565b91505092915050565b600060208284031215620003c157620003c062000215565b5b600082015167ffffffffffffffff811115620003e257620003e16200021a565b5b620003f08482850162000375565b91505092915050565b7f4e487b7100000000000000000000000000000000000000000000000000000000600052602260045260246000fd5b600060028204905060018216806200044157607f821691505b60208210811415620004585762000457620003f9565b5b50919050565b613c3d806200046e6000396000f3fe608060405234801561001057600080fd5b506004361061012b5760003560e01c80638da5cb5b116100ad578063d28d885211610071578063d28d88521461032a578063d81d0a1514610348578063e985e9c514610364578063f242432a14610394578063f2fde38b146103b05761012b565b80638da5cb5b14610286578063a22cb465146102a4578063b09f1266146102c0578063b390c0ab146102de578063c87b56dd146102fa5761012b565b80634e1273f4116100f45780634e1273f4146101f8578063510f410414610228578063715018a61461024457806383ca4b6f1461024e578063862440e21461026a5761012b565b8062fdd58e1461013057806301ffc9a7146101605780630e89341c14610190578063156e29f6146101c05780632eb2c2d6146101dc575b600080fd5b61014a60048036038101906101459190612449565b6103cc565b6040516101579190612498565b60405180910390f35b61017a6004803603810190610175919061250b565b610495565b6040516101879190612553565b60405180910390f35b6101aa60048036038101906101a5919061256e565b610577565b6040516101b79190612634565b60405180910390f35b6101da60048036038101906101d59190612656565b61061c565b005b6101f660048036038101906101f191906128a6565b610644565b005b610212600480360381019061020d9190612a38565b6106e5565b60405161021f9190612b6e565b60405180910390f35b610242600480360381019061023d9190612b90565b6107fe565b005b61024c610833565b005b61026860048036038101906102639190612c7b565b610847565b005b610284600480360381019061027f9190612d94565b610856565b005b61028e6108c2565b60405161029b9190612dff565b60405180910390f35b6102be60048036038101906102b99190612e46565b6108ec565b005b6102c8610902565b6040516102d59190612634565b60405180910390f35b6102f860048036038101906102f39190612e86565b610990565b005b610314600480360381019061030f919061256e565b61099f565b6040516103219190612634565b60405180910390f35b610332610a3f565b60405161033f9190612634565b60405180910390f35b610362600480360381019061035d9190612ec6565b610acd565b005b61037e60048036038101906103799190612f51565b610af5565b60405161038b9190612553565b60405180910390f35b6103ae60048036038101906103a99190612f91565b610b89565b005b6103ca60048036038101906103c59190613028565b610c2a565b005b60008073ffffffffffffffffffffffffffffffffffffffff168373ffffffffffffffffffffffffffffffffffffffff16141561043d576040517f08c379a0000000000000000000000000000000000000000000000000000000008152600401610434906130c7565b60405180910390fd5b60008083815260200190815260200160002060008473ffffffffffffffffffffffffffffffffffffffff1673ffffffffffffffffffffffffffffffffffffffff16815260200190815260200160002054905092915050565b60007fd9b67a26000000000000000000000000000000000000000000000000000000007bffffffffffffffffffffffffffffffffffffffffffffffffffffffff1916827bffffffffffffffffffffffffffffffffffffffffffffffffffffffff1916148061056057507f0e89341c000000000000000000000000000000000000000000000000000000007bffffffffffffffffffffffffffffffffffffffffffffffffffffffff1916827bffffffffffffffffffffffffffffffffffffffffffffffffffffffff1916145b80610570575061056f82610cae565b5b9050919050565b606060066000838152602001908152602001600020805461059790613116565b80601f01602080910402602001604051908101604052809291908181526020018280546105c390613116565b80156106105780601f106105e557610100808354040283529160200191610610565b820191906000526020600020905b8154815290600101906020018083116105f357829003601f168201915b50505050509050919050565b610624610d18565b61063f83838360405180602001604052806000815250610d96565b505050565b61064c610f47565b73ffffffffffffffffffffffffffffffffffffffff168573ffffffffffffffffffffffffffffffffffffffff16148061069257506106918561068c610f47565b610af5565b5b6106d1576040517f08c379a00000000000000000000000000000000000000000000000000000000081526004016106c8906131ba565b60405180910390fd5b6106de8585858585610f4f565b5050505050565b6060815183511461072b576040517f08c379a00000000000000000000000000000000000000000000000000000000081526004016107229061324c565b60405180910390fd5b6000835167ffffffffffffffff811115610748576107476126ae565b5b6040519080825280602002602001820160405280156107765781602001602082028036833780820191505090505b50905060005b84518110156107f3576107c385828151811061079b5761079a61326c565b5b60200260200101518583815181106107b6576107b561326c565b5b60200260200101516103cc565b8282815181106107d6576107d561326c565b5b602002602001018181525050806107ec906132ca565b905061077c565b508091505092915050565b610806610d18565b610811858585611271565b61082c85838360405180602001604052806000815250611540565b5050505050565b61083b610d18565b610845600061176d565b565b610852338383611271565b5050565b61085e610d18565b806006600084815260200190815260200160002090805190602001906108859291906122fe565b50817f6bb7ff708619ba0610cba295a58592e0451dee2622938c8755667688daf3529b826040516108b69190612634565b60405180910390a25050565b6000600360009054906101000a900473ffffffffffffffffffffffffffffffffffffffff16905090565b6108fe6108f7610f47565b8383611833565b5050565b6005805461090f90613116565b80601f016020809104026020016040519081016040528092919081815260200182805461093b90613116565b80156109885780601f1061095d57610100808354040283529160200191610988565b820191906000526020600020905b81548152906001019060200180831161096b57829003601f168201915b505050505081565b61099b3383836119a0565b5050565b600660205280600052604060002060009150905080546109be90613116565b80601f01602080910402602001604051908101604052809291908181526020018280546109ea90613116565b8015610a375780601f10610a0c57610100808354040283529160200191610a37565b820191906000526020600020905b815481529060010190602001808311610a1a57829003601f168201915b505050505081565b60048054610a4c90613116565b80601f0160208091040260200160405190810160405280929190818152602001828054610a7890613116565b8015610ac55780601f10610a9a57610100808354040283529160200191610ac5565b820191906000526020600020905b815481529060010190602001808311610aa857829003601f168201915b505050505081565b610ad5610d18565b610af083838360405180602001604052806000815250611540565b505050565b6000600160008473ffffffffffffffffffffffffffffffffffffffff1673ffffffffffffffffffffffffffffffffffffffff16815260200190815260200160002060008373ffffffffffffffffffffffffffffffffffffffff1673ffffffffffffffffffffffffffffffffffffffff16815260200190815260200160002060009054906101000a900460ff16905092915050565b610b91610f47565b73ffffffffffffffffffffffffffffffffffffffff168573ffffffffffffffffffffffffffffffffffffffff161480610bd75750610bd685610bd1610f47565b610af5565b5b610c16576040517f08c379a0000000000000000000000000000000000000000000000000000000008152600401610c0d906131ba565b60405180910390fd5b610c238585858585611be7565b5050505050565b610c32610d18565b600073ffffffffffffffffffffffffffffffffffffffff168173ffffffffffffffffffffffffffffffffffffffff161415610ca2576040517f08c379a0000000000000000000000000000000000000000000000000000000008152600401610c9990613385565b60405180910390fd5b610cab8161176d565b50565b60007f01ffc9a7000000000000000000000000000000000000000000000000000000007bffffffffffffffffffffffffffffffffffffffffffffffffffffffff1916827bffffffffffffffffffffffffffffffffffffffffffffffffffffffff1916149050919050565b610d20610f47565b73ffffffffffffffffffffffffffffffffffffffff16610d3e6108c2565b73ffffffffffffffffffffffffffffffffffffffff1614610d94576040517f08c379a0000000000000000000000000000000000000000000000000000000008152600401610d8b906133f1565b60405180910390fd5b565b600073ffffffffffffffffffffffffffffffffffffffff168473ffffffffffffffffffffffffffffffffffffffff161415610e06576040517f08c379a0000000000000000000000000000000000000000000000000000000008152600401610dfd90613483565b60405180910390fd5b6000610e10610f47565b90506000610e1d85611e83565b90506000610e2a85611e83565b9050610e3b83600089858589611efd565b8460008088815260200190815260200160002060008973ffffffffffffffffffffffffffffffffffffffff1673ffffffffffffffffffffffffffffffffffffffff1681526020019081526020016000206000828254610e9a91906134a3565b925050819055508673ffffffffffffffffffffffffffffffffffffffff16600073ffffffffffffffffffffffffffffffffffffffff168473ffffffffffffffffffffffffffffffffffffffff167fc3d58168c5ae7397731d063d5bbf3d657854427343f4c083240f7aacaa2d0f628989604051610f189291906134f9565b60405180910390a4610f2f83600089858589611f05565b610f3e83600089898989611f0d565b50505050505050565b600033905090565b8151835114610f93576040517f08c379a0000000000000000000000000000000000000000000000000000000008152600401610f8a90613594565b60405180910390fd5b600073ffffffffffffffffffffffffffffffffffffffff168473ffffffffffffffffffffffffffffffffffffffff161415611003576040517f08c379a0000000000000000000000000000000000000000000000000000000008152600401610ffa90613626565b60405180910390fd5b600061100d610f47565b905061101d818787878787611efd565b60005b84518110156111ce57600085828151811061103e5761103d61326c565b5b60200260200101519050600085838151811061105d5761105c61326c565b5b60200260200101519050600080600084815260200190815260200160002060008b73ffffffffffffffffffffffffffffffffffffffff1673ffffffffffffffffffffffffffffffffffffffff168152602001908152602001600020549050818110156110fe576040517f08c379a00000000000000000000000000000000000000000000000000000000081526004016110f5906136b8565b60405180910390fd5b81810360008085815260200190815260200160002060008c73ffffffffffffffffffffffffffffffffffffffff1673ffffffffffffffffffffffffffffffffffffffff168152602001908152602001600020819055508160008085815260200190815260200160002060008b73ffffffffffffffffffffffffffffffffffffffff1673ffffffffffffffffffffffffffffffffffffffff16815260200190815260200160002060008282546111b391906134a3565b92505081905550505050806111c7906132ca565b9050611020565b508473ffffffffffffffffffffffffffffffffffffffff168673ffffffffffffffffffffffffffffffffffffffff168273ffffffffffffffffffffffffffffffffffffffff167f4a39dc06d4c0dbc64b70af90fd698a233a518aa5d07e595d983b8c0526c8f7fb87876040516112459291906136d8565b60405180910390a461125b818787878787611f05565b6112698187878787876120f4565b505050505050565b600073ffffffffffffffffffffffffffffffffffffffff168373ffffffffffffffffffffffffffffffffffffffff1614156112e1576040517f08c379a00000000000000000000000000000000000000000000000000000000081526004016112d890613781565b60405180910390fd5b8051825114611325576040517f08c379a000000000000000000000000000000000000000000000000000000000815260040161131c90613594565b60405180910390fd5b600061132f610f47565b905061134f81856000868660405180602001604052806000815250611efd565b60005b835181101561149c5760008482815181106113705761136f61326c565b5b60200260200101519050600084838151811061138f5761138e61326c565b5b60200260200101519050600080600084815260200190815260200160002060008973ffffffffffffffffffffffffffffffffffffffff1673ffffffffffffffffffffffffffffffffffffffff16815260200190815260200160002054905081811015611430576040517f08c379a000000000000000000000000000000000000000000000000000000000815260040161142790613813565b60405180910390fd5b81810360008085815260200190815260200160002060008a73ffffffffffffffffffffffffffffffffffffffff1673ffffffffffffffffffffffffffffffffffffffff168152602001908152602001600020819055505050508080611494906132ca565b915050611352565b50600073ffffffffffffffffffffffffffffffffffffffff168473ffffffffffffffffffffffffffffffffffffffff168273ffffffffffffffffffffffffffffffffffffffff167f4a39dc06d4c0dbc64b70af90fd698a233a518aa5d07e595d983b8c0526c8f7fb86866040516115149291906136d8565b60405180910390a461153a81856000868660405180602001604052806000815250611f05565b50505050565b600073ffffffffffffffffffffffffffffffffffffffff168473ffffffffffffffffffffffffffffffffffffffff1614156115b0576040517f08c379a00000000000000000000000000000000000000000000000000000000081526004016115a790613483565b60405180910390fd5b81518351146115f4576040517f08c379a00000000000000000000000000000000000000000000000000000000081526004016115eb90613594565b60405180910390fd5b60006115fe610f47565b905061160f81600087878787611efd565b60005b84518110156116c85783818151811061162e5761162d61326c565b5b602002602001015160008087848151811061164c5761164b61326c565b5b6020026020010151815260200190815260200160002060008873ffffffffffffffffffffffffffffffffffffffff1673ffffffffffffffffffffffffffffffffffffffff16815260200190815260200160002060008282546116ae91906134a3565b9250508190555080806116c0906132ca565b915050611612565b508473ffffffffffffffffffffffffffffffffffffffff16600073ffffffffffffffffffffffffffffffffffffffff168273ffffffffffffffffffffffffffffffffffffffff167f4a39dc06d4c0dbc64b70af90fd698a233a518aa5d07e595d983b8c0526c8f7fb87876040516117409291906136d8565b60405180910390a461175781600087878787611f05565b611766816000878787876120f4565b5050505050565b6000600360009054906101000a900473ffffffffffffffffffffffffffffffffffffffff16905081600360006101000a81548173ffffffffffffffffffffffffffffffffffffffff021916908373ffffffffffffffffffffffffffffffffffffffff1602179055508173ffffffffffffffffffffffffffffffffffffffff168173ffffffffffffffffffffffffffffffffffffffff167f8be0079c531659141344cd1fd0a4f28419497f9722a3daafe3b4186f6b6457e060405160405180910390a35050565b8173ffffffffffffffffffffffffffffffffffffffff168373ffffffffffffffffffffffffffffffffffffffff1614156118a2576040517f08c379a0000000000000000000000000000000000000000000000000000000008152600401611899906138a5565b60405180910390fd5b80600160008573ffffffffffffffffffffffffffffffffffffffff1673ffffffffffffffffffffffffffffffffffffffff16815260200190815260200160002060008473ffffffffffffffffffffffffffffffffffffffff1673ffffffffffffffffffffffffffffffffffffffff16815260200190815260200160002060006101000a81548160ff0219169083151502179055508173ffffffffffffffffffffffffffffffffffffffff168373ffffffffffffffffffffffffffffffffffffffff167f17307eab39ab6107e8899845ad3d59bd9653f200f220920489ca2b5937696c31836040516119939190612553565b60405180910390a3505050565b600073ffffffffffffffffffffffffffffffffffffffff168373ffffffffffffffffffffffffffffffffffffffff161415611a10576040517f08c379a0000000000000000000000000000000000000000000000000000000008152600401611a0790613781565b60405180910390fd5b6000611a1a610f47565b90506000611a2784611e83565b90506000611a3484611e83565b9050611a5483876000858560405180602001604052806000815250611efd565b600080600087815260200190815260200160002060008873ffffffffffffffffffffffffffffffffffffffff1673ffffffffffffffffffffffffffffffffffffffff16815260200190815260200160002054905084811015611aeb576040517f08c379a0000000000000000000000000000000000000000000000000000000008152600401611ae290613813565b60405180910390fd5b84810360008088815260200190815260200160002060008973ffffffffffffffffffffffffffffffffffffffff1673ffffffffffffffffffffffffffffffffffffffff16815260200190815260200160002081905550600073ffffffffffffffffffffffffffffffffffffffff168773ffffffffffffffffffffffffffffffffffffffff168573ffffffffffffffffffffffffffffffffffffffff167fc3d58168c5ae7397731d063d5bbf3d657854427343f4c083240f7aacaa2d0f628989604051611bb89291906134f9565b60405180910390a4611bde84886000868660405180602001604052806000815250611f05565b50505050505050565b600073ffffffffffffffffffffffffffffffffffffffff168473ffffffffffffffffffffffffffffffffffffffff161415611c57576040517f08c379a0000000000000000000000000000000000000000000000000000000008152600401611c4e90613626565b60405180910390fd5b6000611c61610f47565b90506000611c6e85611e83565b90506000611c7b85611e83565b9050611c8b838989858589611efd565b600080600088815260200190815260200160002060008a73ffffffffffffffffffffffffffffffffffffffff1673ffffffffffffffffffffffffffffffffffffffff16815260200190815260200160002054905085811015611d22576040517f08c379a0000000000000000000000000000000000000000000000000000000008152600401611d19906136b8565b60405180910390fd5b85810360008089815260200190815260200160002060008b73ffffffffffffffffffffffffffffffffffffffff1673ffffffffffffffffffffffffffffffffffffffff168152602001908152602001600020819055508560008089815260200190815260200160002060008a73ffffffffffffffffffffffffffffffffffffffff1673ffffffffffffffffffffffffffffffffffffffff1681526020019081526020016000206000828254611dd791906134a3565b925050819055508773ffffffffffffffffffffffffffffffffffffffff168973ffffffffffffffffffffffffffffffffffffffff168573ffffffffffffffffffffffffffffffffffffffff167fc3d58168c5ae7397731d063d5bbf3d657854427343f4c083240f7aacaa2d0f628a8a604051611e549291906134f9565b60405180910390a4611e6a848a8a86868a611f05565b611e78848a8a8a8a8a611f0d565b505050505050505050565b60606000600167ffffffffffffffff811115611ea257611ea16126ae565b5b604051908082528060200260200182016040528015611ed05781602001602082028036833780820191505090505b5090508281600081518110611ee857611ee761326c565b5b60200260200101818152505080915050919050565b505050505050565b505050505050565b611f2c8473ffffffffffffffffffffffffffffffffffffffff166122db565b156120ec578373ffffffffffffffffffffffffffffffffffffffff1663f23a6e6187878686866040518663ffffffff1660e01b8152600401611f7295949392919061391a565b602060405180830381600087803b158015611f8c57600080fd5b505af1925050508015611fbd57506040513d601f19601f82011682018060405250810190611fba9190613989565b60015b61206357611fc96139c3565b806308c379a014156120265750611fde6139e5565b80611fe95750612028565b806040517f08c379a000000000000000000000000000000000000000000000000000000000815260040161201d9190612634565b60405180910390fd5b505b6040517f08c379a000000000000000000000000000000000000000000000000000000000815260040161205a90613aed565b60405180910390fd5b63f23a6e6160e01b7bffffffffffffffffffffffffffffffffffffffffffffffffffffffff1916817bffffffffffffffffffffffffffffffffffffffffffffffffffffffff1916146120ea576040517f08c379a00000000000000000000000000000000000000000000000000000000081526004016120e190613b7f565b60405180910390fd5b505b505050505050565b6121138473ffffffffffffffffffffffffffffffffffffffff166122db565b156122d3578373ffffffffffffffffffffffffffffffffffffffff1663bc197c8187878686866040518663ffffffff1660e01b8152600401612159959493929190613b9f565b602060405180830381600087803b15801561217357600080fd5b505af19250505080156121a457506040513d601f19601f820116820180604052508101906121a19190613989565b60015b61224a576121b06139c3565b806308c379a0141561220d57506121c56139e5565b806121d0575061220f565b806040517f08c379a00000000000000000000000000000000000000000000000000000000081526004016122049190612634565b60405180910390fd5b505b6040517f08c379a000000000000000000000000000000000000000000000000000000000815260040161224190613aed565b60405180910390fd5b63bc197c8160e01b7bffffffffffffffffffffffffffffffffffffffffffffffffffffffff1916817bffffffffffffffffffffffffffffffffffffffffffffffffffffffff1916146122d1576040517f08c379a00000000000000000000000000000000000000000000000000000000081526004016122c890613b7f565b60405180910390fd5b505b505050505050565b6000808273ffffffffffffffffffffffffffffffffffffffff163b119050919050565b82805461230a90613116565b90600052602060002090601f01602090048101928261232c5760008555612373565b82601f1061234557805160ff1916838001178555612373565b82800160010185558215612373579182015b82811115612372578251825591602001919060010190612357565b5b5090506123809190612384565b5090565b5b8082111561239d576000816000905550600101612385565b5090565b6000604051905090565b600080fd5b600080fd5b600073ffffffffffffffffffffffffffffffffffffffff82169050919050565b60006123e0826123b5565b9050919050565b6123f0816123d5565b81146123fb57600080fd5b50565b60008135905061240d816123e7565b92915050565b6000819050919050565b61242681612413565b811461243157600080fd5b50565b6000813590506124438161241d565b92915050565b600080604083850312156124605761245f6123ab565b5b600061246e858286016123fe565b925050602061247f85828601612434565b9150509250929050565b61249281612413565b82525050565b60006020820190506124ad6000830184612489565b92915050565b60007fffffffff0000000000000000000000000000000000000000000000000000000082169050919050565b6124e8816124b3565b81146124f357600080fd5b50565b600081359050612505816124df565b92915050565b600060208284031215612521576125206123ab565b5b600061252f848285016124f6565b91505092915050565b60008115159050919050565b61254d81612538565b82525050565b60006020820190506125686000830184612544565b92915050565b600060208284031215612584576125836123ab565b5b600061259284828501612434565b91505092915050565b600081519050919050565b600082825260208201905092915050565b60005b838110156125d55780820151818401526020810190506125ba565b838111156125e4576000848401525b50505050565b6000601f19601f8301169050919050565b60006126068261259b565b61261081856125a6565b93506126208185602086016125b7565b612629816125ea565b840191505092915050565b6000602082019050818103600083015261264e81846125fb565b905092915050565b60008060006060848603121561266f5761266e6123ab565b5b600061267d868287016123fe565b935050602061268e86828701612434565b925050604061269f86828701612434565b9150509250925092565b600080fd5b7f4e487b7100000000000000000000000000000000000000000000000000000000600052604160045260246000fd5b6126e6826125ea565b810181811067ffffffffffffffff82111715612705576127046126ae565b5b80604052505050565b60006127186123a1565b905061272482826126dd565b919050565b600067ffffffffffffffff821115612744576127436126ae565b5b602082029050602081019050919050565b600080fd5b600061276d61276884612729565b61270e565b905080838252602082019050602084028301858111156127905761278f612755565b5b835b818110156127b957806127a58882612434565b845260208401935050602081019050612792565b5050509392505050565b600082601f8301126127d8576127d76126a9565b5b81356127e884826020860161275a565b91505092915050565b600080fd5b600067ffffffffffffffff821115612811576128106126ae565b5b61281a826125ea565b9050602081019050919050565b82818337600083830152505050565b6000612849612844846127f6565b61270e565b905082815260208101848484011115612865576128646127f1565b5b612870848285612827565b509392505050565b600082601f83011261288d5761288c6126a9565b5b813561289d848260208601612836565b91505092915050565b600080600080600060a086880312156128c2576128c16123ab565b5b60006128d0888289016123fe565b95505060206128e1888289016123fe565b945050604086013567ffffffffffffffff811115612902576129016123b0565b5b61290e888289016127c3565b935050606086013567ffffffffffffffff81111561292f5761292e6123b0565b5b61293b888289016127c3565b925050608086013567ffffffffffffffff81111561295c5761295b6123b0565b5b61296888828901612878565b9150509295509295909350565b600067ffffffffffffffff8211156129905761298f6126ae565b5b602082029050602081019050919050565b60006129b46129af84612975565b61270e565b905080838252602082019050602084028301858111156129d7576129d6612755565b5b835b81811015612a0057806129ec88826123fe565b8452602084019350506020810190506129d9565b5050509392505050565b600082601f830112612a1f57612a1e6126a9565b5b8135612a2f8482602086016129a1565b91505092915050565b60008060408385031215612a4f57612a4e6123ab565b5b600083013567ffffffffffffffff811115612a6d57612a6c6123b0565b5b612a7985828601612a0a565b925050602083013567ffffffffffffffff811115612a9a57612a996123b0565b5b612aa6858286016127c3565b9150509250929050565b600081519050919050565b600082825260208201905092915050565b6000819050602082019050919050565b612ae581612413565b82525050565b6000612af78383612adc565b60208301905092915050565b6000602082019050919050565b6000612b1b82612ab0565b612b258185612abb565b9350612b3083612acc565b8060005b83811015612b61578151612b488882612aeb565b9750612b5383612b03565b925050600181019050612b34565b5085935050505092915050565b60006020820190508181036000830152612b888184612b10565b905092915050565b600080600080600060a08688031215612bac57612bab6123ab565b5b6000612bba888289016123fe565b955050602086013567ffffffffffffffff811115612bdb57612bda6123b0565b5b612be7888289016127c3565b945050604086013567ffffffffffffffff811115612c0857612c076123b0565b5b612c14888289016127c3565b935050606086013567ffffffffffffffff811115612c3557612c346123b0565b5b612c41888289016127c3565b925050608086013567ffffffffffffffff811115612c6257612c616123b0565b5b612c6e888289016127c3565b9150509295509295909350565b60008060408385031215612c9257612c916123ab565b5b600083013567ffffffffffffffff811115612cb057612caf6123b0565b5b612cbc858286016127c3565b925050602083013567ffffffffffffffff811115612cdd57612cdc6123b0565b5b612ce9858286016127c3565b9150509250929050565b600067ffffffffffffffff821115612d0e57612d0d6126ae565b5b612d17826125ea565b9050602081019050919050565b6000612d37612d3284612cf3565b61270e565b905082815260208101848484011115612d5357612d526127f1565b5b612d5e848285612827565b509392505050565b600082601f830112612d7b57612d7a6126a9565b5b8135612d8b848260208601612d24565b91505092915050565b60008060408385031215612dab57612daa6123ab565b5b6000612db985828601612434565b925050602083013567ffffffffffffffff811115612dda57612dd96123b0565b5b612de685828601612d66565b9150509250929050565b612df9816123d5565b82525050565b6000602082019050612e146000830184612df0565b92915050565b612e2381612538565b8114612e2e57600080fd5b50565b600081359050612e4081612e1a565b92915050565b60008060408385031215612e5d57612e5c6123ab565b5b6000612e6b858286016123fe565b9250506020612e7c85828601612e31565b9150509250929050565b60008060408385031215612e9d57612e9c6123ab565b5b6000612eab85828601612434565b9250506020612ebc85828601612434565b9150509250929050565b600080600060608486031215612edf57612ede6123ab565b5b6000612eed868287016123fe565b935050602084013567ffffffffffffffff811115612f0e57612f0d6123b0565b5b612f1a868287016127c3565b925050604084013567ffffffffffffffff811115612f3b57612f3a6123b0565b5b612f47868287016127c3565b9150509250925092565b60008060408385031215612f6857612f676123ab565b5b6000612f76858286016123fe565b9250506020612f87858286016123fe565b9150509250929050565b600080600080600060a08688031215612fad57612fac6123ab565b5b6000612fbb888289016123fe565b9550506020612fcc888289016123fe565b9450506040612fdd88828901612434565b9350506060612fee88828901612434565b925050608086013567ffffffffffffffff81111561300f5761300e6123b0565b5b61301b88828901612878565b9150509295509295909350565b60006020828403121561303e5761303d6123ab565b5b600061304c848285016123fe565b91505092915050565b7f455243313135353a2061646472657373207a65726f206973206e6f742061207660008201527f616c6964206f776e657200000000000000000000000000000000000000000000602082015250565b60006130b1602a836125a6565b91506130bc82613055565b604082019050919050565b600060208201905081810360008301526130e0816130a4565b9050919050565b7f4e487b7100000000000000000000000000000000000000000000000000000000600052602260045260246000fd5b6000600282049050600182168061312e57607f821691505b60208210811415613142576131416130e7565b5b50919050565b7f455243313135353a2063616c6c6572206973206e6f7420746f6b656e206f776e60008201527f6572206e6f7220617070726f7665640000000000000000000000000000000000602082015250565b60006131a4602f836125a6565b91506131af82613148565b604082019050919050565b600060208201905081810360008301526131d381613197565b9050919050565b7f455243313135353a206163636f756e747320616e6420696473206c656e67746860008201527f206d69736d617463680000000000000000000000000000000000000000000000602082015250565b60006132366029836125a6565b9150613241826131da565b604082019050919050565b6000602082019050818103600083015261326581613229565b9050919050565b7f4e487b7100000000000000000000000000000000000000000000000000000000600052603260045260246000fd5b7f4e487b7100000000000000000000000000000000000000000000000000000000600052601160045260246000fd5b60006132d582612413565b91507fffffffffffffffffffffffffffffffffffffffffffffffffffffffffffffffff8214156133085761330761329b565b5b600182019050919050565b7f4f776e61626c653a206e6577206f776e657220697320746865207a65726f206160008201527f6464726573730000000000000000000000000000000000000000000000000000602082015250565b600061336f6026836125a6565b915061337a82613313565b604082019050919050565b6000602082019050818103600083015261339e81613362565b9050919050565b7f4f776e61626c653a2063616c6c6572206973206e6f7420746865206f776e6572600082015250565b60006133db6020836125a6565b91506133e6826133a5565b602082019050919050565b6000602082019050818103600083015261340a816133ce565b9050919050565b7f455243313135353a206d696e7420746f20746865207a65726f2061646472657360008201527f7300000000000000000000000000000000000000000000000000000000000000602082015250565b600061346d6021836125a6565b915061347882613411565b604082019050919050565b6000602082019050818103600083015261349c81613460565b9050919050565b60006134ae82612413565b91506134b983612413565b9250827fffffffffffffffffffffffffffffffffffffffffffffffffffffffffffffffff038211156134ee576134ed61329b565b5b828201905092915050565b600060408201905061350e6000830185612489565b61351b6020830184612489565b9392505050565b7f455243313135353a2069647320616e6420616d6f756e7473206c656e6774682060008201527f6d69736d61746368000000000000000000000000000000000000000000000000602082015250565b600061357e6028836125a6565b915061358982613522565b604082019050919050565b600060208201905081810360008301526135ad81613571565b9050919050565b7f455243313135353a207472616e7366657220746f20746865207a65726f20616460008201527f6472657373000000000000000000000000000000000000000000000000000000602082015250565b60006136106025836125a6565b915061361b826135b4565b604082019050919050565b6000602082019050818103600083015261363f81613603565b9050919050565b7f455243313135353a20696e73756666696369656e742062616c616e636520666f60008201527f72207472616e7366657200000000000000000000000000000000000000000000602082015250565b60006136a2602a836125a6565b91506136ad82613646565b604082019050919050565b600060208201905081810360008301526136d181613695565b9050919050565b600060408201905081810360008301526136f28185612b10565b905081810360208301526137068184612b10565b90509392505050565b7f455243313135353a206275726e2066726f6d20746865207a65726f206164647260008201527f6573730000000000000000000000000000000000000000000000000000000000602082015250565b600061376b6023836125a6565b91506137768261370f565b604082019050919050565b6000602082019050818103600083015261379a8161375e565b9050919050565b7f455243313135353a206275726e20616d6f756e7420657863656564732062616c60008201527f616e636500000000000000000000000000000000000000000000000000000000602082015250565b60006137fd6024836125a6565b9150613808826137a1565b604082019050919050565b6000602082019050818103600083015261382c816137f0565b9050919050565b7f455243313135353a2073657474696e6720617070726f76616c2073746174757360008201527f20666f722073656c660000000000000000000000000000000000000000000000602082015250565b600061388f6029836125a6565b915061389a82613833565b604082019050919050565b600060208201905081810360008301526138be81613882565b9050919050565b600081519050919050565b600082825260208201905092915050565b60006138ec826138c5565b6138f681856138d0565b93506139068185602086016125b7565b61390f816125ea565b840191505092915050565b600060a08201905061392f6000830188612df0565b61393c6020830187612df0565b6139496040830186612489565b6139566060830185612489565b818103608083015261396881846138e1565b90509695505050505050565b600081519050613983816124df565b92915050565b60006020828403121561399f5761399e6123ab565b5b60006139ad84828501613974565b91505092915050565b60008160e01c9050919050565b600060033d11156139e25760046000803e6139df6000516139b6565b90505b90565b600060443d10156139f557613a78565b6139fd6123a1565b60043d036004823e80513d602482011167ffffffffffffffff82111715613a25575050613a78565b808201805167ffffffffffffffff811115613a435750505050613a78565b80602083010160043d038501811115613a60575050505050613a78565b613a6f826020018501866126dd565b82955050505050505b90565b7f455243313135353a207472616e7366657220746f206e6f6e204552433131353560008201527f526563656976657220696d706c656d656e746572000000000000000000000000602082015250565b6000613ad76034836125a6565b9150613ae282613a7b565b604082019050919050565b60006020820190508181036000830152613b0681613aca565b9050919050565b7f455243313135353a204552433131353552656365697665722072656a6563746560008201527f6420746f6b656e73000000000000000000000000000000000000000000000000602082015250565b6000613b696028836125a6565b9150613b7482613b0d565b604082019050919050565b60006020820190508181036000830152613b9881613b5c565b9050919050565b600060a082019050613bb46000830188612df0565b613bc16020830187612df0565b8181036040830152613bd38186612b10565b90508181036060830152613be78185612b10565b90508181036080830152613bfb81846138e1565b9050969550505050505056fea2646970667358221220f608f98226f9283db75d292d0f00101022f9f8a58e83dd3a85bc1cf25b1137c564736f6c63430008090033a26469706673582212203e5c9c148706317246265b015ce3952a991e4d1657171695580e26c6192548cf64736f6c63430008090033",
  "linkReferences": {},
  "deployedLinkReferences": {}
}