{
  "_format": "hh-sol-artifact-1",
  "contractName": "AddressToCollection",
  "sourceName": "contracts/AddressToCollection.sol",
  "abi": [
    {
      "inputs": [
        {
          "internalType": "string",
          "name": "collection_name",
          "type": "string"
        },
        {
          "internalType": "string",
          "name": "collection_symbol",
          "type": "string"
        },
        {
          "internalType": "string",
          "name": "imageURI",
          "type": "string"
        },
        {
          "internalType": "string",
          "name": "description",
          "type": "string"
        },
        {
          "internalType": "string",
          "name": "date",
          "type": "string"
        },
        {
          "internalType": "string",
          "name": "eventName",
          "type": "string"
        }
      ],
      "name": "addCollection",
      "outputs": [],
      "stateMutability": "nonpayable",
      "type": "function"
    },
    {
      "inputs": [],
      "name": "getCollections",
      "outputs": [
        {
          "internalType": "address[]",
          "name": "",
          "type": "address[]"
        }
      ],
      "stateMutability": "view",
      "type": "function"
    },
    {
      "inputs": [
        {
          "internalType": "address",
          "name": "contract_address",
          "type": "address"
        }
      ],
      "name": "getContractInfo",
      "outputs": [
        {
          "components": [
            {
              "internalType": "string",
              "name": "contractImageURI",
              "type": "string"
            },
            {
              "internalType": "string",
              "name": "contractDescription",
              "type": "string"
            },
            {
              "internalType": "string",
              "name": "eventDate",
              "type": "string"
            },
            {
              "internalType": "string",
              "name": "eventName",
              "type": "string"
            },
            {
              "internalType": "string",
              "name": "collectionName",
              "type": "string"
            }
          ],
          "internalType": "struct AddressToCollection.contractDataStruct",
          "name": "",
          "type": "tuple"
        }
      ],
      "stateMutability": "view",
      "type": "function"
    },
    {
      "inputs": [
        {
          "internalType": "address",
          "name": "wallet_address",
          "type": "address"
        }
      ],
      "name": "getSomeoneElsesCollection",
      "outputs": [
        {
          "internalType": "address[]",
          "name": "",
          "type": "address[]"
        }
      ],
      "stateMutability": "view",
      "type": "function"
    },
    {
      "inputs": [
        {
          "internalType": "address",
          "name": "wallet_address",
          "type": "address"
        }
      ],
      "name": "verifyOrg",
      "outputs": [],
      "stateMutability": "nonpayable",
      "type": "function"
    }
  ],
  "bytecode": "0x608060405234801561001057600080fd5b50613f83806100206000396000f3fe60806040523480156200001157600080fd5b50600436106200005e5760003560e01c8063180d9ec4146200006357806346e635861462000083578063550ca9bc14620000a5578063cd481e5114620000c5578063f1b01b0214620000fb575b600080fd5b6200008160048036038101906200007b919062000cc8565b62000131565b005b6200008d6200018e565b6040516200009c919062000dc8565b60405180910390f35b620000c36004803603810190620000bd919062000f4e565b620002bf565b005b620000e36004803603810190620000dd919062000cc8565b6200064c565b604051620000f29190620011d3565b60405180910390f35b62000119600480360381019062000113919062000cc8565b620009a9565b60405162000128919062000dc8565b60405180910390f35b60016000808373ffffffffffffffffffffffffffffffffffffffff1673ffffffffffffffffffffffffffffffffffffffff16815260200190815260200160002060000160006101000a81548160ff02191690831515021790555050565b60606000803373ffffffffffffffffffffffffffffffffffffffff1673ffffffffffffffffffffffffffffffffffffffff16815260200190815260200160002060000160009054906101000a900460ff1615620001f157606080915050620002bc565b6000803373ffffffffffffffffffffffffffffffffffffffff1673ffffffffffffffffffffffffffffffffffffffff168152602001908152602001600020600101805480602002602001604051908101604052809291908181526020018280548015620002b457602002820191906000526020600020905b8160009054906101000a900473ffffffffffffffffffffffffffffffffffffffff1673ffffffffffffffffffffffffffffffffffffffff168152602001906001019080831162000269575b505050505090505b90565b60008686604051620002d19062000ad3565b620002de92919062001249565b604051809103906000f080158015620002fb573d6000803e3d6000fd5b5090506000803373ffffffffffffffffffffffffffffffffffffffff1673ffffffffffffffffffffffffffffffffffffffff16815260200190815260200160002060000160009054906101000a900460ff1615620003fb576000803373ffffffffffffffffffffffffffffffffffffffff1673ffffffffffffffffffffffffffffffffffffffff168152602001908152602001600020600101819080600181540180825580915050600190039060005260206000200160009091909190916101000a81548173ffffffffffffffffffffffffffffffffffffffff021916908373ffffffffffffffffffffffffffffffffffffffff1602179055506200053f565b606060006040518060400160405280600115158152602001838152509050806000803373ffffffffffffffffffffffffffffffffffffffff1673ffffffffffffffffffffffffffffffffffffffff16815260200190815260200160002060008201518160000160006101000a81548160ff02191690831515021790555060208201518160010190805190602001906200049692919062000ae1565b509050506000803373ffffffffffffffffffffffffffffffffffffffff1673ffffffffffffffffffffffffffffffffffffffff168152602001908152602001600020600101839080600181540180825580915050600190039060005260206000200160009091909190916101000a81548173ffffffffffffffffffffffffffffffffffffffff021916908373ffffffffffffffffffffffffffffffffffffffff16021790555050505b6040518060a0016040528086815260200185815260200184815260200183815260200188815250600160008373ffffffffffffffffffffffffffffffffffffffff1673ffffffffffffffffffffffffffffffffffffffff1681526020019081526020016000206000820151816000019080519060200190620005c392919062000b70565b506020820151816001019080519060200190620005e292919062000b70565b5060408201518160020190805190602001906200060192919062000b70565b5060608201518160030190805190602001906200062092919062000b70565b5060808201518160040190805190602001906200063f92919062000b70565b5090505050505050505050565b6200065662000c01565b600160008373ffffffffffffffffffffffffffffffffffffffff1673ffffffffffffffffffffffffffffffffffffffff1681526020019081526020016000206040518060a0016040529081600082018054620006b290620012b3565b80601f0160208091040260200160405190810160405280929190818152602001828054620006e090620012b3565b8015620007315780601f10620007055761010080835404028352916020019162000731565b820191906000526020600020905b8154815290600101906020018083116200071357829003601f168201915b505050505081526020016001820180546200074c90620012b3565b80601f01602080910402602001604051908101604052809291908181526020018280546200077a90620012b3565b8015620007cb5780601f106200079f57610100808354040283529160200191620007cb565b820191906000526020600020905b815481529060010190602001808311620007ad57829003601f168201915b50505050508152602001600282018054620007e690620012b3565b80601f01602080910402602001604051908101604052809291908181526020018280546200081490620012b3565b8015620008655780601f10620008395761010080835404028352916020019162000865565b820191906000526020600020905b8154815290600101906020018083116200084757829003601f168201915b505050505081526020016003820180546200088090620012b3565b80601f0160208091040260200160405190810160405280929190818152602001828054620008ae90620012b3565b8015620008ff5780601f10620008d357610100808354040283529160200191620008ff565b820191906000526020600020905b815481529060010190602001808311620008e157829003601f168201915b505050505081526020016004820180546200091a90620012b3565b80601f01602080910402602001604051908101604052809291908181526020018280546200094890620012b3565b8015620009995780601f106200096d5761010080835404028352916020019162000999565b820191906000526020600020905b8154815290600101906020018083116200097b57829003601f168201915b5050505050815250509050919050565b60606000808373ffffffffffffffffffffffffffffffffffffffff1673ffffffffffffffffffffffffffffffffffffffff16815260200190815260200160002060000160009054906101000a900460ff1662000a0457600080fd5b6000808373ffffffffffffffffffffffffffffffffffffffff1673ffffffffffffffffffffffffffffffffffffffff16815260200190815260200160002060010180548060200260200160405190810160405280929190818152602001828054801562000ac757602002820191906000526020600020905b8160009054906101000a900473ffffffffffffffffffffffffffffffffffffffff1673ffffffffffffffffffffffffffffffffffffffff168152602001906001019080831162000a7c575b50505050509050919050565b612c6480620012ea83390190565b82805482825590600052602060002090810192821562000b5d579160200282015b8281111562000b5c5782518260006101000a81548173ffffffffffffffffffffffffffffffffffffffff021916908373ffffffffffffffffffffffffffffffffffffffff1602179055509160200191906001019062000b02565b5b50905062000b6c919062000c30565b5090565b82805462000b7e90620012b3565b90600052602060002090601f01602090048101928262000ba2576000855562000bee565b82601f1062000bbd57805160ff191683800117855562000bee565b8280016001018555821562000bee579182015b8281111562000bed57825182559160200191906001019062000bd0565b5b50905062000bfd919062000c30565b5090565b6040518060a0016040528060608152602001606081526020016060815260200160608152602001606081525090565b5b8082111562000c4b57600081600090555060010162000c31565b5090565b6000604051905090565b600080fd5b600080fd5b600073ffffffffffffffffffffffffffffffffffffffff82169050919050565b600062000c908262000c63565b9050919050565b62000ca28162000c83565b811462000cae57600080fd5b50565b60008135905062000cc28162000c97565b92915050565b60006020828403121562000ce15762000ce062000c59565b5b600062000cf18482850162000cb1565b91505092915050565b600081519050919050565b600082825260208201905092915050565b6000819050602082019050919050565b62000d318162000c83565b82525050565b600062000d45838362000d26565b60208301905092915050565b6000602082019050919050565b600062000d6b8262000cfa565b62000d77818562000d05565b935062000d848362000d16565b8060005b8381101562000dbb57815162000d9f888262000d37565b975062000dac8362000d51565b92505060018101905062000d88565b5085935050505092915050565b6000602082019050818103600083015262000de4818462000d5e565b905092915050565b600080fd5b600080fd5b6000601f19601f8301169050919050565b7f4e487b7100000000000000000000000000000000000000000000000000000000600052604160045260246000fd5b62000e418262000df6565b810181811067ffffffffffffffff8211171562000e635762000e6262000e07565b5b80604052505050565b600062000e7862000c4f565b905062000e86828262000e36565b919050565b600067ffffffffffffffff82111562000ea95762000ea862000e07565b5b62000eb48262000df6565b9050602081019050919050565b82818337600083830152505050565b600062000ee762000ee18462000e8b565b62000e6c565b90508281526020810184848401111562000f065762000f0562000df1565b5b62000f1384828562000ec1565b509392505050565b600082601f83011262000f335762000f3262000dec565b5b813562000f4584826020860162000ed0565b91505092915050565b60008060008060008060c0878903121562000f6e5762000f6d62000c59565b5b600087013567ffffffffffffffff81111562000f8f5762000f8e62000c5e565b5b62000f9d89828a0162000f1b565b965050602087013567ffffffffffffffff81111562000fc15762000fc062000c5e565b5b62000fcf89828a0162000f1b565b955050604087013567ffffffffffffffff81111562000ff35762000ff262000c5e565b5b6200100189828a0162000f1b565b945050606087013567ffffffffffffffff81111562001025576200102462000c5e565b5b6200103389828a0162000f1b565b935050608087013567ffffffffffffffff81111562001057576200105662000c5e565b5b6200106589828a0162000f1b565b92505060a087013567ffffffffffffffff81111562001089576200108862000c5e565b5b6200109789828a0162000f1b565b9150509295509295509295565b600081519050919050565b600082825260208201905092915050565b60005b83811015620010e0578082015181840152602081019050620010c3565b83811115620010f0576000848401525b50505050565b60006200110382620010a4565b6200110f8185620010af565b935062001121818560208601620010c0565b6200112c8162000df6565b840191505092915050565b600060a0830160008301518482036000860152620011568282620010f6565b91505060208301518482036020860152620011728282620010f6565b915050604083015184820360408601526200118e8282620010f6565b91505060608301518482036060860152620011aa8282620010f6565b91505060808301518482036080860152620011c68282620010f6565b9150508091505092915050565b60006020820190508181036000830152620011ef818462001137565b905092915050565b600082825260208201905092915050565b60006200121582620010a4565b620012218185620011f7565b935062001233818560208601620010c0565b6200123e8162000df6565b840191505092915050565b6000604082019050818103600083015262001265818562001208565b905081810360208301526200127b818462001208565b90509392505050565b7f4e487b7100000000000000000000000000000000000000000000000000000000600052602260045260246000fd5b60006002820490506001821680620012cc57607f821691505b60208210811415620012e357620012e262001284565b5b5091905056fe60806040523480156200001157600080fd5b5060405162002c6438038062002c648339818101604052810190620000379190620002c2565b818181600090805190602001906200005192919062000075565b5080600190805190602001906200006a92919062000075565b5050505050620003ac565b828054620000839062000376565b90600052602060002090601f016020900481019282620000a75760008555620000f3565b82601f10620000c257805160ff1916838001178555620000f3565b82800160010185558215620000f3579182015b82811115620000f2578251825591602001919060010190620000d5565b5b50905062000102919062000106565b5090565b5b808211156200012157600081600090555060010162000107565b5090565b6000604051905090565b600080fd5b600080fd5b600080fd5b600080fd5b6000601f19601f8301169050919050565b7f4e487b7100000000000000000000000000000000000000000000000000000000600052604160045260246000fd5b6200018e8262000143565b810181811067ffffffffffffffff82111715620001b057620001af62000154565b5b80604052505050565b6000620001c562000125565b9050620001d3828262000183565b919050565b600067ffffffffffffffff821115620001f657620001f562000154565b5b620002018262000143565b9050602081019050919050565b60005b838110156200022e57808201518184015260208101905062000211565b838111156200023e576000848401525b50505050565b60006200025b6200025584620001d8565b620001b9565b9050828152602081018484840111156200027a57620002796200013e565b5b620002878482856200020e565b509392505050565b600082601f830112620002a757620002a662000139565b5b8151620002b984826020860162000244565b91505092915050565b60008060408385031215620002dc57620002db6200012f565b5b600083015167ffffffffffffffff811115620002fd57620002fc62000134565b5b6200030b858286016200028f565b925050602083015167ffffffffffffffff8111156200032f576200032e62000134565b5b6200033d858286016200028f565b9150509250929050565b7f4e487b7100000000000000000000000000000000000000000000000000000000600052602260045260246000fd5b600060028204905060018216806200038f57607f821691505b60208210811415620003a657620003a562000347565b5b50919050565b6128a880620003bc6000396000f3fe608060405234801561001057600080fd5b50600436106100ea5760003560e01c806370a082311161008c578063b88d4fde11610066578063b88d4fde1461025b578063c87b56dd14610277578063e985e9c5146102a7578063eacabe14146102d7576100ea565b806370a08231146101f157806395d89b4114610221578063a22cb4651461023f576100ea565b8063095ea7b3116100c8578063095ea7b31461016d57806323b872dd1461018957806342842e0e146101a55780636352211e146101c1576100ea565b806301ffc9a7146100ef57806306fdde031461011f578063081812fc1461013d575b600080fd5b61010960048036038101906101049190611878565b610307565b60405161011691906118c0565b60405180910390f35b6101276103e9565b6040516101349190611974565b60405180910390f35b610157600480360381019061015291906119cc565b61047b565b6040516101649190611a3a565b60405180910390f35b61018760048036038101906101829190611a81565b6104c1565b005b6101a3600480360381019061019e9190611ac1565b6105d9565b005b6101bf60048036038101906101ba9190611ac1565b610639565b005b6101db60048036038101906101d691906119cc565b610659565b6040516101e89190611a3a565b60405180910390f35b61020b60048036038101906102069190611b14565b61070b565b6040516102189190611b50565b60405180910390f35b6102296107c3565b6040516102369190611974565b60405180910390f35b61025960048036038101906102549190611b97565b610855565b005b61027560048036038101906102709190611d0c565b61086b565b005b610291600480360381019061028c91906119cc565b6108cd565b60405161029e9190611974565b60405180910390f35b6102c160048036038101906102bc9190611d8f565b6109e0565b6040516102ce91906118c0565b60405180910390f35b6102f160048036038101906102ec9190611e70565b610a74565b6040516102fe9190611b50565b60405180910390f35b60007f80ac58cd000000000000000000000000000000000000000000000000000000007bffffffffffffffffffffffffffffffffffffffffffffffffffffffff1916827bffffffffffffffffffffffffffffffffffffffffffffffffffffffff191614806103d257507f5b5e139f000000000000000000000000000000000000000000000000000000007bffffffffffffffffffffffffffffffffffffffffffffffffffffffff1916827bffffffffffffffffffffffffffffffffffffffffffffffffffffffff1916145b806103e257506103e182610aac565b5b9050919050565b6060600080546103f890611efb565b80601f016020809104026020016040519081016040528092919081815260200182805461042490611efb565b80156104715780601f1061044657610100808354040283529160200191610471565b820191906000526020600020905b81548152906001019060200180831161045457829003601f168201915b5050505050905090565b600061048682610b16565b6004600083815260200190815260200160002060009054906101000a900473ffffffffffffffffffffffffffffffffffffffff169050919050565b60006104cc82610659565b90508073ffffffffffffffffffffffffffffffffffffffff168373ffffffffffffffffffffffffffffffffffffffff16141561053d576040517f08c379a000000000000000000000000000000000000000000000000000000000815260040161053490611f9f565b60405180910390fd5b8073ffffffffffffffffffffffffffffffffffffffff1661055c610b61565b73ffffffffffffffffffffffffffffffffffffffff16148061058b575061058a81610585610b61565b6109e0565b5b6105ca576040517f08c379a00000000000000000000000000000000000000000000000000000000081526004016105c190612031565b60405180910390fd5b6105d48383610b69565b505050565b6105ea6105e4610b61565b82610c22565b610629576040517f08c379a0000000000000000000000000000000000000000000000000000000008152600401610620906120c3565b60405180910390fd5b610634838383610cb7565b505050565b6106548383836040518060200160405280600081525061086b565b505050565b6000806002600084815260200190815260200160002060009054906101000a900473ffffffffffffffffffffffffffffffffffffffff169050600073ffffffffffffffffffffffffffffffffffffffff168173ffffffffffffffffffffffffffffffffffffffff161415610702576040517f08c379a00000000000000000000000000000000000000000000000000000000081526004016106f99061212f565b60405180910390fd5b80915050919050565b60008073ffffffffffffffffffffffffffffffffffffffff168273ffffffffffffffffffffffffffffffffffffffff16141561077c576040517f08c379a0000000000000000000000000000000000000000000000000000000008152600401610773906121c1565b60405180910390fd5b600360008373ffffffffffffffffffffffffffffffffffffffff1673ffffffffffffffffffffffffffffffffffffffff168152602001908152602001600020549050919050565b6060600180546107d290611efb565b80601f01602080910402602001604051908101604052809291908181526020018280546107fe90611efb565b801561084b5780601f106108205761010080835404028352916020019161084b565b820191906000526020600020905b81548152906001019060200180831161082e57829003601f168201915b5050505050905090565b610867610860610b61565b8383610f1e565b5050565b61087c610876610b61565b83610c22565b6108bb576040517f08c379a00000000000000000000000000000000000000000000000000000000081526004016108b2906120c3565b60405180910390fd5b6108c78484848461108b565b50505050565b60606108d882610b16565b60006006600084815260200190815260200160002080546108f890611efb565b80601f016020809104026020016040519081016040528092919081815260200182805461092490611efb565b80156109715780601f1061094657610100808354040283529160200191610971565b820191906000526020600020905b81548152906001019060200180831161095457829003601f168201915b5050505050905060006109826110e7565b90506000815114156109985781925050506109db565b6000825111156109cd5780826040516020016109b592919061221d565b604051602081830303815290604052925050506109db565b6109d6846110fe565b925050505b919050565b6000600560008473ffffffffffffffffffffffffffffffffffffffff1673ffffffffffffffffffffffffffffffffffffffff16815260200190815260200160002060008373ffffffffffffffffffffffffffffffffffffffff1673ffffffffffffffffffffffffffffffffffffffff16815260200190815260200160002060009054906101000a900460ff16905092915050565b6000610a806007611166565b6000610a8c600761117c565b9050610a98848261118a565b610aa28184611364565b8091505092915050565b60007f01ffc9a7000000000000000000000000000000000000000000000000000000007bffffffffffffffffffffffffffffffffffffffffffffffffffffffff1916827bffffffffffffffffffffffffffffffffffffffffffffffffffffffff1916149050919050565b610b1f816113d8565b610b5e576040517f08c379a0000000000000000000000000000000000000000000000000000000008152600401610b559061212f565b60405180910390fd5b50565b600033905090565b816004600083815260200190815260200160002060006101000a81548173ffffffffffffffffffffffffffffffffffffffff021916908373ffffffffffffffffffffffffffffffffffffffff160217905550808273ffffffffffffffffffffffffffffffffffffffff16610bdc83610659565b73ffffffffffffffffffffffffffffffffffffffff167f8c5be1e5ebec7d5bd14f71427d1e84f3dd0314c0f7b2291e5b200ac8c7c3b92560405160405180910390a45050565b600080610c2e83610659565b90508073ffffffffffffffffffffffffffffffffffffffff168473ffffffffffffffffffffffffffffffffffffffff161480610c705750610c6f81856109e0565b5b80610cae57508373ffffffffffffffffffffffffffffffffffffffff16610c968461047b565b73ffffffffffffffffffffffffffffffffffffffff16145b91505092915050565b8273ffffffffffffffffffffffffffffffffffffffff16610cd782610659565b73ffffffffffffffffffffffffffffffffffffffff1614610d2d576040517f08c379a0000000000000000000000000000000000000000000000000000000008152600401610d24906122b3565b60405180910390fd5b600073ffffffffffffffffffffffffffffffffffffffff168273ffffffffffffffffffffffffffffffffffffffff161415610d9d576040517f08c379a0000000000000000000000000000000000000000000000000000000008152600401610d9490612345565b60405180910390fd5b610da8838383611444565b610db3600082610b69565b6001600360008573ffffffffffffffffffffffffffffffffffffffff1673ffffffffffffffffffffffffffffffffffffffff1681526020019081526020016000206000828254610e039190612394565b925050819055506001600360008473ffffffffffffffffffffffffffffffffffffffff1673ffffffffffffffffffffffffffffffffffffffff1681526020019081526020016000206000828254610e5a91906123c8565b92505081905550816002600083815260200190815260200160002060006101000a81548173ffffffffffffffffffffffffffffffffffffffff021916908373ffffffffffffffffffffffffffffffffffffffff160217905550808273ffffffffffffffffffffffffffffffffffffffff168473ffffffffffffffffffffffffffffffffffffffff167fddf252ad1be2c89b69c2b068fc378daa952ba7f163c4a11628f55a4df523b3ef60405160405180910390a4610f19838383611449565b505050565b8173ffffffffffffffffffffffffffffffffffffffff168373ffffffffffffffffffffffffffffffffffffffff161415610f8d576040517f08c379a0000000000000000000000000000000000000000000000000000000008152600401610f849061246a565b60405180910390fd5b80600560008573ffffffffffffffffffffffffffffffffffffffff1673ffffffffffffffffffffffffffffffffffffffff16815260200190815260200160002060008473ffffffffffffffffffffffffffffffffffffffff1673ffffffffffffffffffffffffffffffffffffffff16815260200190815260200160002060006101000a81548160ff0219169083151502179055508173ffffffffffffffffffffffffffffffffffffffff168373ffffffffffffffffffffffffffffffffffffffff167f17307eab39ab6107e8899845ad3d59bd9653f200f220920489ca2b5937696c318360405161107e91906118c0565b60405180910390a3505050565b611096848484610cb7565b6110a28484848461144e565b6110e1576040517f08c379a00000000000000000000000000000000000000000000000000000000081526004016110d8906124fc565b60405180910390fd5b50505050565b606060405180602001604052806000815250905090565b606061110982610b16565b60006111136110e7565b90506000815111611133576040518060200160405280600081525061115e565b8061113d846115e5565b60405160200161114e92919061221d565b6040516020818303038152906040525b915050919050565b6001816000016000828254019250508190555050565b600081600001549050919050565b600073ffffffffffffffffffffffffffffffffffffffff168273ffffffffffffffffffffffffffffffffffffffff1614156111fa576040517f08c379a00000000000000000000000000000000000000000000000000000000081526004016111f190612568565b60405180910390fd5b611203816113d8565b15611243576040517f08c379a000000000000000000000000000000000000000000000000000000000815260040161123a906125d4565b60405180910390fd5b61124f60008383611444565b6001600360008473ffffffffffffffffffffffffffffffffffffffff1673ffffffffffffffffffffffffffffffffffffffff168152602001908152602001600020600082825461129f91906123c8565b92505081905550816002600083815260200190815260200160002060006101000a81548173ffffffffffffffffffffffffffffffffffffffff021916908373ffffffffffffffffffffffffffffffffffffffff160217905550808273ffffffffffffffffffffffffffffffffffffffff16600073ffffffffffffffffffffffffffffffffffffffff167fddf252ad1be2c89b69c2b068fc378daa952ba7f163c4a11628f55a4df523b3ef60405160405180910390a461136060008383611449565b5050565b61136d826113d8565b6113ac576040517f08c379a00000000000000000000000000000000000000000000000000000000081526004016113a390612666565b60405180910390fd5b806006600084815260200190815260200160002090805190602001906113d3929190611769565b505050565b60008073ffffffffffffffffffffffffffffffffffffffff166002600084815260200190815260200160002060009054906101000a900473ffffffffffffffffffffffffffffffffffffffff1673ffffffffffffffffffffffffffffffffffffffff1614159050919050565b505050565b505050565b600061146f8473ffffffffffffffffffffffffffffffffffffffff16611746565b156115d8578373ffffffffffffffffffffffffffffffffffffffff1663150b7a02611498610b61565b8786866040518563ffffffff1660e01b81526004016114ba94939291906126db565b602060405180830381600087803b1580156114d457600080fd5b505af192505050801561150557506040513d601f19601f82011682018060405250810190611502919061273c565b60015b611588573d8060008114611535576040519150601f19603f3d011682016040523d82523d6000602084013e61153a565b606091505b50600081511415611580576040517f08c379a0000000000000000000000000000000000000000000000000000000008152600401611577906124fc565b60405180910390fd5b805181602001fd5b63150b7a0260e01b7bffffffffffffffffffffffffffffffffffffffffffffffffffffffff1916817bffffffffffffffffffffffffffffffffffffffffffffffffffffffff1916149150506115dd565b600190505b949350505050565b6060600082141561162d576040518060400160405280600181526020017f30000000000000000000000000000000000000000000000000000000000000008152509050611741565b600082905060005b6000821461165f57808061164890612769565b915050600a8261165891906127e1565b9150611635565b60008167ffffffffffffffff81111561167b5761167a611be1565b5b6040519080825280601f01601f1916602001820160405280156116ad5781602001600182028036833780820191505090505b5090505b6000851461173a576001826116c69190612394565b9150600a856116d59190612812565b60306116e191906123c8565b60f81b8183815181106116f7576116f6612843565b5b60200101907effffffffffffffffffffffffffffffffffffffffffffffffffffffffffffff1916908160001a905350600a8561173391906127e1565b94506116b1565b8093505050505b919050565b6000808273ffffffffffffffffffffffffffffffffffffffff163b119050919050565b82805461177590611efb565b90600052602060002090601f01602090048101928261179757600085556117de565b82601f106117b057805160ff19168380011785556117de565b828001600101855582156117de579182015b828111156117dd5782518255916020019190600101906117c2565b5b5090506117eb91906117ef565b5090565b5b808211156118085760008160009055506001016117f0565b5090565b6000604051905090565b600080fd5b600080fd5b60007fffffffff0000000000000000000000000000000000000000000000000000000082169050919050565b61185581611820565b811461186057600080fd5b50565b6000813590506118728161184c565b92915050565b60006020828403121561188e5761188d611816565b5b600061189c84828501611863565b91505092915050565b60008115159050919050565b6118ba816118a5565b82525050565b60006020820190506118d560008301846118b1565b92915050565b600081519050919050565b600082825260208201905092915050565b60005b838110156119155780820151818401526020810190506118fa565b83811115611924576000848401525b50505050565b6000601f19601f8301169050919050565b6000611946826118db565b61195081856118e6565b93506119608185602086016118f7565b6119698161192a565b840191505092915050565b6000602082019050818103600083015261198e818461193b565b905092915050565b6000819050919050565b6119a981611996565b81146119b457600080fd5b50565b6000813590506119c6816119a0565b92915050565b6000602082840312156119e2576119e1611816565b5b60006119f0848285016119b7565b91505092915050565b600073ffffffffffffffffffffffffffffffffffffffff82169050919050565b6000611a24826119f9565b9050919050565b611a3481611a19565b82525050565b6000602082019050611a4f6000830184611a2b565b92915050565b611a5e81611a19565b8114611a6957600080fd5b50565b600081359050611a7b81611a55565b92915050565b60008060408385031215611a9857611a97611816565b5b6000611aa685828601611a6c565b9250506020611ab7858286016119b7565b9150509250929050565b600080600060608486031215611ada57611ad9611816565b5b6000611ae886828701611a6c565b9350506020611af986828701611a6c565b9250506040611b0a868287016119b7565b9150509250925092565b600060208284031215611b2a57611b29611816565b5b6000611b3884828501611a6c565b91505092915050565b611b4a81611996565b82525050565b6000602082019050611b656000830184611b41565b92915050565b611b74816118a5565b8114611b7f57600080fd5b50565b600081359050611b9181611b6b565b92915050565b60008060408385031215611bae57611bad611816565b5b6000611bbc85828601611a6c565b9250506020611bcd85828601611b82565b9150509250929050565b600080fd5b600080fd5b7f4e487b7100000000000000000000000000000000000000000000000000000000600052604160045260246000fd5b611c198261192a565b810181811067ffffffffffffffff82111715611c3857611c37611be1565b5b80604052505050565b6000611c4b61180c565b9050611c578282611c10565b919050565b600067ffffffffffffffff821115611c7757611c76611be1565b5b611c808261192a565b9050602081019050919050565b82818337600083830152505050565b6000611caf611caa84611c5c565b611c41565b905082815260208101848484011115611ccb57611cca611bdc565b5b611cd6848285611c8d565b509392505050565b600082601f830112611cf357611cf2611bd7565b5b8135611d03848260208601611c9c565b91505092915050565b60008060008060808587031215611d2657611d25611816565b5b6000611d3487828801611a6c565b9450506020611d4587828801611a6c565b9350506040611d56878288016119b7565b925050606085013567ffffffffffffffff811115611d7757611d7661181b565b5b611d8387828801611cde565b91505092959194509250565b60008060408385031215611da657611da5611816565b5b6000611db485828601611a6c565b9250506020611dc585828601611a6c565b9150509250929050565b600067ffffffffffffffff821115611dea57611de9611be1565b5b611df38261192a565b9050602081019050919050565b6000611e13611e0e84611dcf565b611c41565b905082815260208101848484011115611e2f57611e2e611bdc565b5b611e3a848285611c8d565b509392505050565b600082601f830112611e5757611e56611bd7565b5b8135611e67848260208601611e00565b91505092915050565b60008060408385031215611e8757611e86611816565b5b6000611e9585828601611a6c565b925050602083013567ffffffffffffffff811115611eb657611eb561181b565b5b611ec285828601611e42565b9150509250929050565b7f4e487b7100000000000000000000000000000000000000000000000000000000600052602260045260246000fd5b60006002820490506001821680611f1357607f821691505b60208210811415611f2757611f26611ecc565b5b50919050565b7f4552433732313a20617070726f76616c20746f2063757272656e74206f776e6560008201527f7200000000000000000000000000000000000000000000000000000000000000602082015250565b6000611f896021836118e6565b9150611f9482611f2d565b604082019050919050565b60006020820190508181036000830152611fb881611f7c565b9050919050565b7f4552433732313a20617070726f76652063616c6c6572206973206e6f7420746f60008201527f6b656e206f776e6572206e6f7220617070726f76656420666f7220616c6c0000602082015250565b600061201b603e836118e6565b915061202682611fbf565b604082019050919050565b6000602082019050818103600083015261204a8161200e565b9050919050565b7f4552433732313a2063616c6c6572206973206e6f7420746f6b656e206f776e6560008201527f72206e6f7220617070726f766564000000000000000000000000000000000000602082015250565b60006120ad602e836118e6565b91506120b882612051565b604082019050919050565b600060208201905081810360008301526120dc816120a0565b9050919050565b7f4552433732313a20696e76616c696420746f6b656e2049440000000000000000600082015250565b60006121196018836118e6565b9150612124826120e3565b602082019050919050565b600060208201905081810360008301526121488161210c565b9050919050565b7f4552433732313a2061646472657373207a65726f206973206e6f74206120766160008201527f6c6964206f776e65720000000000000000000000000000000000000000000000602082015250565b60006121ab6029836118e6565b91506121b68261214f565b604082019050919050565b600060208201905081810360008301526121da8161219e565b9050919050565b600081905092915050565b60006121f7826118db565b61220181856121e1565b93506122118185602086016118f7565b80840191505092915050565b600061222982856121ec565b915061223582846121ec565b91508190509392505050565b7f4552433732313a207472616e736665722066726f6d20696e636f72726563742060008201527f6f776e6572000000000000000000000000000000000000000000000000000000602082015250565b600061229d6025836118e6565b91506122a882612241565b604082019050919050565b600060208201905081810360008301526122cc81612290565b9050919050565b7f4552433732313a207472616e7366657220746f20746865207a65726f2061646460008201527f7265737300000000000000000000000000000000000000000000000000000000602082015250565b600061232f6024836118e6565b915061233a826122d3565b604082019050919050565b6000602082019050818103600083015261235e81612322565b9050919050565b7f4e487b7100000000000000000000000000000000000000000000000000000000600052601160045260246000fd5b600061239f82611996565b91506123aa83611996565b9250828210156123bd576123bc612365565b5b828203905092915050565b60006123d382611996565b91506123de83611996565b9250827fffffffffffffffffffffffffffffffffffffffffffffffffffffffffffffffff0382111561241357612412612365565b5b828201905092915050565b7f4552433732313a20617070726f766520746f2063616c6c657200000000000000600082015250565b60006124546019836118e6565b915061245f8261241e565b602082019050919050565b6000602082019050818103600083015261248381612447565b9050919050565b7f4552433732313a207472616e7366657220746f206e6f6e20455243373231526560008201527f63656976657220696d706c656d656e7465720000000000000000000000000000602082015250565b60006124e66032836118e6565b91506124f18261248a565b604082019050919050565b60006020820190508181036000830152612515816124d9565b9050919050565b7f4552433732313a206d696e7420746f20746865207a65726f2061646472657373600082015250565b60006125526020836118e6565b915061255d8261251c565b602082019050919050565b6000602082019050818103600083015261258181612545565b9050919050565b7f4552433732313a20746f6b656e20616c7265616479206d696e74656400000000600082015250565b60006125be601c836118e6565b91506125c982612588565b602082019050919050565b600060208201905081810360008301526125ed816125b1565b9050919050565b7f45524337323155524953746f726167653a2055524920736574206f66206e6f6e60008201527f6578697374656e7420746f6b656e000000000000000000000000000000000000602082015250565b6000612650602e836118e6565b915061265b826125f4565b604082019050919050565b6000602082019050818103600083015261267f81612643565b9050919050565b600081519050919050565b600082825260208201905092915050565b60006126ad82612686565b6126b78185612691565b93506126c78185602086016118f7565b6126d08161192a565b840191505092915050565b60006080820190506126f06000830187611a2b565b6126fd6020830186611a2b565b61270a6040830185611b41565b818103606083015261271c81846126a2565b905095945050505050565b6000815190506127368161184c565b92915050565b60006020828403121561275257612751611816565b5b600061276084828501612727565b91505092915050565b600061277482611996565b91507fffffffffffffffffffffffffffffffffffffffffffffffffffffffffffffffff8214156127a7576127a6612365565b5b600182019050919050565b7f4e487b7100000000000000000000000000000000000000000000000000000000600052601260045260246000fd5b60006127ec82611996565b91506127f783611996565b925082612807576128066127b2565b5b828204905092915050565b600061281d82611996565b915061282883611996565b925082612838576128376127b2565b5b828206905092915050565b7f4e487b7100000000000000000000000000000000000000000000000000000000600052603260045260246000fdfea2646970667358221220b17cf92948771cced6bc2d8529ce4463eb54b5eb1e4993f1a89c9b34c098b76c64736f6c63430008090033a2646970667358221220975fa3588f1bcce9203cba8648864e66323ef367f37e70d4a61358327a295d5e64736f6c63430008090033",
  "linkReferences": {},
  "deployedLinkReferences": {}
}