{
  "_format": "hh-sol-artifact-1",
  "contractName": "faucetContract",
  "sourceName": "contracts/FaucetContract.sol",
  "abi": [
    {
      "inputs": [],
      "stateMutability": "nonpayable",
      "type": "constructor"
    },
    {
      "inputs": [
        {
          "internalType": "address",
          "name": "_HRAddress",
          "type": "address"
        }
      ],
      "name": "addToHRList",
      "outputs": [],
      "stateMutability": "nonpayable",
      "type": "function"
    },
    {
      "inputs": [
        {
          "internalType": "address[]",
          "name": "_address",
          "type": "address[]"
        },
        {
          "internalType": "uint256",
          "name": "_amount",
          "type": "uint256"
        }
      ],
      "name": "assignMaticPointForEmployee",
      "outputs": [],
      "stateMutability": "nonpayable",
      "type": "function"
    },
    {
      "inputs": [
        {
          "internalType": "address",
          "name": "_address",
          "type": "address"
        },
        {
          "internalType": "uint256",
          "name": "_amount",
          "type": "uint256"
        }
      ],
      "name": "assignMaticPointForSingleEmployee",
      "outputs": [],
      "stateMutability": "nonpayable",
      "type": "function"
    },
    {
      "inputs": [],
      "name": "checkMaticPointsOfEmployee",
      "outputs": [
        {
          "internalType": "uint256",
          "name": "",
          "type": "uint256"
        }
      ],
      "stateMutability": "view",
      "type": "function"
    },
    {
      "inputs": [],
      "name": "depositFunds",
      "outputs": [],
      "stateMutability": "payable",
      "type": "function"
    },
    {
      "inputs": [],
      "name": "getHRListAddress",
      "outputs": [
        {
          "internalType": "address[]",
          "name": "",
          "type": "address[]"
        }
      ],
      "stateMutability": "view",
      "type": "function"
    },
    {
      "inputs": [],
      "name": "getfundInContract",
      "outputs": [
        {
          "internalType": "uint256",
          "name": "",
          "type": "uint256"
        }
      ],
      "stateMutability": "view",
      "type": "function"
    },
    {
      "inputs": [],
      "name": "redeemEmployeeMatic",
      "outputs": [],
      "stateMutability": "payable",
      "type": "function"
    }
  ],
  "bytecode": "0x608060405234801561001057600080fd5b50336000806101000a81548173ffffffffffffffffffffffffffffffffffffffff021916908373ffffffffffffffffffffffffffffffffffffffff1602179055506001339080600181540180825580915050600190039060005260206000200160009091909190916101000a81548173ffffffffffffffffffffffffffffffffffffffff021916908373ffffffffffffffffffffffffffffffffffffffff1602179055506110d5806100c36000396000f3fe60806040526004361061007b5760003560e01c8063a479bf5a1161004e578063a479bf5a14610109578063ceee5c6614610132578063e2c41dbc1461015d578063f8c90561146101675761007b565b80633f5c74b5146100805780635376a8fc146100a9578063776d6309146100d457806392a1fe96146100de575b600080fd5b34801561008c57600080fd5b506100a760048036038101906100a29190610b42565b610190565b005b3480156100b557600080fd5b506100be610353565b6040516100cb9190610bad565b60405180910390f35b6100dc61039a565b005b3480156100ea57600080fd5b506100f3610585565b6040516101009190610bad565b60405180910390f35b34801561011557600080fd5b50610130600480360381019061012b9190610bc8565b610673565b005b34801561013e57600080fd5b50610147610731565b6040516101549190610cb3565b60405180910390f35b6101656107bf565b005b34801561017357600080fd5b5061018e60048036038101906101899190610cd5565b6107c1565b005b60008060005b60018054905081101561023057600181815481106101b7576101b6610d15565b5b9060005260206000200160009054906101000a900473ffffffffffffffffffffffffffffffffffffffff1692503373ffffffffffffffffffffffffffffffffffffffff168373ffffffffffffffffffffffffffffffffffffffff16141561021d57600191505b808061022890610d73565b915050610196565b5080610271576040517f08c379a000000000000000000000000000000000000000000000000000000000815260040161026890610e19565b60405180910390fd5b600083116102b4576040517f08c379a00000000000000000000000000000000000000000000000000000000081526004016102ab90610eab565b60405180910390fd5b600080600090505b855181101561034b578581815181106102d8576102d7610d15565b5b6020026020010151915084600260008473ffffffffffffffffffffffffffffffffffffffff1673ffffffffffffffffffffffffffffffffffffffff16815260200190815260200160002060008282546103319190610ecb565b92505081905550808061034390610d73565b9150506102bc565b505050505050565b6000600260003373ffffffffffffffffffffffffffffffffffffffff1673ffffffffffffffffffffffffffffffffffffffff16815260200190815260200160002054905090565b6000600260003373ffffffffffffffffffffffffffffffffffffffff1673ffffffffffffffffffffffffffffffffffffffff168152602001908152602001600020541161041c576040517f08c379a000000000000000000000000000000000000000000000000000000000815260040161041390610f93565b60405180910390fd5b670de0b6b3a7640000600260003373ffffffffffffffffffffffffffffffffffffffff1673ffffffffffffffffffffffffffffffffffffffff1681526020019081526020016000205461046f9190610fb3565b47116104b0576040517f08c379a00000000000000000000000000000000000000000000000000000000081526004016104a79061107f565b60405180910390fd5b6000600260003373ffffffffffffffffffffffffffffffffffffffff1673ffffffffffffffffffffffffffffffffffffffff1681526020019081526020016000205490506000600260003373ffffffffffffffffffffffffffffffffffffffff1673ffffffffffffffffffffffffffffffffffffffff168152602001908152602001600020819055503373ffffffffffffffffffffffffffffffffffffffff166108fc670de0b6b3a7640000836105679190610fb3565b9081150290604051600060405180830381858888f193505050505050565b600080600080600090505b60018054905081101561062a57600181815481106105b1576105b0610d15565b5b9060005260206000200160009054906101000a900473ffffffffffffffffffffffffffffffffffffffff1692503373ffffffffffffffffffffffffffffffffffffffff168373ffffffffffffffffffffffffffffffffffffffff16141561061757600191505b808061062290610d73565b915050610590565b508061066b576040517f08c379a000000000000000000000000000000000000000000000000000000000815260040161066290610e19565b60405180910390fd5b479250505090565b3373ffffffffffffffffffffffffffffffffffffffff1660008054906101000a900473ffffffffffffffffffffffffffffffffffffffff1673ffffffffffffffffffffffffffffffffffffffff16146106cb57600080fd5b6001819080600181540180825580915050600190039060005260206000200160009091909190916101000a81548173ffffffffffffffffffffffffffffffffffffffff021916908373ffffffffffffffffffffffffffffffffffffffff16021790555050565b606060018054806020026020016040519081016040528092919081815260200182805480156107b557602002820191906000526020600020905b8160009054906101000a900473ffffffffffffffffffffffffffffffffffffffff1673ffffffffffffffffffffffffffffffffffffffff168152602001906001019080831161076b575b5050505050905090565b565b60008060005b60018054905081101561086157600181815481106107e8576107e7610d15565b5b9060005260206000200160009054906101000a900473ffffffffffffffffffffffffffffffffffffffff1692503373ffffffffffffffffffffffffffffffffffffffff168373ffffffffffffffffffffffffffffffffffffffff16141561084e57600191505b808061085990610d73565b9150506107c7565b50806108a2576040517f08c379a000000000000000000000000000000000000000000000000000000000815260040161089990610e19565b60405180910390fd5b600083116108e5576040517f08c379a00000000000000000000000000000000000000000000000000000000081526004016108dc90610eab565b60405180910390fd5b82600260008673ffffffffffffffffffffffffffffffffffffffff1673ffffffffffffffffffffffffffffffffffffffff16815260200190815260200160002060008282546109349190610ecb565b9250508190555050505050565b6000604051905090565b600080fd5b600080fd5b600080fd5b6000601f19601f8301169050919050565b7f4e487b7100000000000000000000000000000000000000000000000000000000600052604160045260246000fd5b6109a38261095a565b810181811067ffffffffffffffff821117156109c2576109c161096b565b5b80604052505050565b60006109d5610941565b90506109e1828261099a565b919050565b600067ffffffffffffffff821115610a0157610a0061096b565b5b602082029050602081019050919050565b600080fd5b600073ffffffffffffffffffffffffffffffffffffffff82169050919050565b6000610a4282610a17565b9050919050565b610a5281610a37565b8114610a5d57600080fd5b50565b600081359050610a6f81610a49565b92915050565b6000610a88610a83846109e6565b6109cb565b90508083825260208201905060208402830185811115610aab57610aaa610a12565b5b835b81811015610ad45780610ac08882610a60565b845260208401935050602081019050610aad565b5050509392505050565b600082601f830112610af357610af2610955565b5b8135610b03848260208601610a75565b91505092915050565b6000819050919050565b610b1f81610b0c565b8114610b2a57600080fd5b50565b600081359050610b3c81610b16565b92915050565b60008060408385031215610b5957610b5861094b565b5b600083013567ffffffffffffffff811115610b7757610b76610950565b5b610b8385828601610ade565b9250506020610b9485828601610b2d565b9150509250929050565b610ba781610b0c565b82525050565b6000602082019050610bc26000830184610b9e565b92915050565b600060208284031215610bde57610bdd61094b565b5b6000610bec84828501610a60565b91505092915050565b600081519050919050565b600082825260208201905092915050565b6000819050602082019050919050565b610c2a81610a37565b82525050565b6000610c3c8383610c21565b60208301905092915050565b6000602082019050919050565b6000610c6082610bf5565b610c6a8185610c00565b9350610c7583610c11565b8060005b83811015610ca6578151610c8d8882610c30565b9750610c9883610c48565b925050600181019050610c79565b5085935050505092915050565b60006020820190508181036000830152610ccd8184610c55565b905092915050565b60008060408385031215610cec57610ceb61094b565b5b6000610cfa85828601610a60565b9250506020610d0b85828601610b2d565b9150509250929050565b7f4e487b7100000000000000000000000000000000000000000000000000000000600052603260045260246000fd5b7f4e487b7100000000000000000000000000000000000000000000000000000000600052601160045260246000fd5b6000610d7e82610b0c565b91507fffffffffffffffffffffffffffffffffffffffffffffffffffffffffffffffff821415610db157610db0610d44565b5b600182019050919050565b600082825260208201905092915050565b7f4852206e6f7420696e206c697374000000000000000000000000000000000000600082015250565b6000610e03600e83610dbc565b9150610e0e82610dcd565b602082019050919050565b60006020820190508181036000830152610e3281610df6565b9050919050565b7f4d617469632073686f756c6420626520706f73697469766520696e746572676560008201527f7220000000000000000000000000000000000000000000000000000000000000602082015250565b6000610e95602283610dbc565b9150610ea082610e39565b604082019050919050565b60006020820190508181036000830152610ec481610e88565b9050919050565b6000610ed682610b0c565b9150610ee183610b0c565b9250827fffffffffffffffffffffffffffffffffffffffffffffffffffffffffffffffff03821115610f1657610f15610d44565b5b828201905092915050565b7f20456d706c6f79656520646f7365206e6f74206861766520656e6f756768206260008201527f616c616e636520746f2072656465656d2e000000000000000000000000000000602082015250565b6000610f7d603183610dbc565b9150610f8882610f21565b604082019050919050565b60006020820190508181036000830152610fac81610f70565b9050919050565b6000610fbe82610b0c565b9150610fc983610b0c565b9250817fffffffffffffffffffffffffffffffffffffffffffffffffffffffffffffffff048311821515161561100257611001610d44565b5b828202905092915050565b7f436f6e747261637420646f73656e74206861766520656e6f7567682062616c6160008201527f6e636520746f2073656e6420697420746f20656d706c6f7965652e0000000000602082015250565b6000611069603b83610dbc565b91506110748261100d565b604082019050919050565b600060208201905081810360008301526110988161105c565b905091905056fea2646970667358221220f24396fe69b788c0709fa29ba9dc9af0f050f86746b997c31ec733681a6f324d64736f6c63430008090033",
  "linkReferences": {},
  "deployedLinkReferences": {}
}