{
  "_format": "hh-sol-artifact-1",
  "contractName": "faucetContract",
  "sourceName": "contracts/FaucetContract.sol",
  "abi": [
    {
      "inputs": [],
      "stateMutability": "nonpayable",
      "type": "constructor"
    },
    {
      "inputs": [
        {
          "internalType": "address",
          "name": "_HRAddress",
          "type": "address"
        }
      ],
      "name": "addToHRList",
      "outputs": [],
      "stateMutability": "nonpayable",
      "type": "function"
    },
    {
      "inputs": [
        {
          "internalType": "address[]",
          "name": "_address",
          "type": "address[]"
        },
        {
          "internalType": "uint256",
          "name": "_amount",
          "type": "uint256"
        }
      ],
      "name": "assignMaticPointForEmployee",
      "outputs": [],
      "stateMutability": "nonpayable",
      "type": "function"
    },
    {
      "inputs": [
        {
          "internalType": "address",
          "name": "_address",
          "type": "address"
        },
        {
          "internalType": "uint256",
          "name": "_amount",
          "type": "uint256"
        }
      ],
      "name": "assignMaticPointForSingleEmployee",
      "outputs": [],
      "stateMutability": "nonpayable",
      "type": "function"
    },
    {
      "inputs": [],
      "name": "checkMaticPointsOfEmployee",
      "outputs": [
        {
          "internalType": "uint256",
          "name": "",
          "type": "uint256"
        }
      ],
      "stateMutability": "view",
      "type": "function"
    },
    {
      "inputs": [],
      "name": "depositFunds",
      "outputs": [],
      "stateMutability": "payable",
      "type": "function"
    },
    {
      "inputs": [],
      "name": "getHRListAddress",
      "outputs": [
        {
          "internalType": "address[]",
          "name": "",
          "type": "address[]"
        }
      ],
      "stateMutability": "view",
      "type": "function"
    },
    {
      "inputs": [],
      "name": "getfundInContract",
      "outputs": [
        {
          "internalType": "uint256",
          "name": "",
          "type": "uint256"
        }
      ],
      "stateMutability": "view",
      "type": "function"
    },
    {
      "inputs": [],
      "name": "redeemEmployeeMatic",
      "outputs": [],
      "stateMutability": "payable",
      "type": "function"
    }
  ],
  "bytecode": "0x608060405234801561001057600080fd5b50336000806101000a81548173ffffffffffffffffffffffffffffffffffffffff021916908373ffffffffffffffffffffffffffffffffffffffff1602179055506001339080600181540180825580915050600190039060005260206000200160009091909190916101000a81548173ffffffffffffffffffffffffffffffffffffffff021916908373ffffffffffffffffffffffffffffffffffffffff160217905550611055806100c36000396000f3fe60806040526004361061007b5760003560e01c8063a479bf5a1161004e578063a479bf5a14610109578063ceee5c6614610132578063e2c41dbc1461015d578063f8c90561146101675761007b565b80633f5c74b5146100805780635376a8fc146100a9578063776d6309146100d457806392a1fe96146100de575b600080fd5b34801561008c57600080fd5b506100a760048036038101906100a29190610b1c565b610190565b005b3480156100b557600080fd5b506100be610353565b6040516100cb9190610b87565b60405180910390f35b6100dc61039a565b005b3480156100ea57600080fd5b506100f361055f565b6040516101009190610b87565b60405180910390f35b34801561011557600080fd5b50610130600480360381019061012b9190610ba2565b61064d565b005b34801561013e57600080fd5b5061014761070b565b6040516101549190610c8d565b60405180910390f35b610165610799565b005b34801561017357600080fd5b5061018e60048036038101906101899190610caf565b61079b565b005b60008060005b60018054905081101561023057600181815481106101b7576101b6610cef565b5b9060005260206000200160009054906101000a900473ffffffffffffffffffffffffffffffffffffffff1692503373ffffffffffffffffffffffffffffffffffffffff168373ffffffffffffffffffffffffffffffffffffffff16141561021d57600191505b808061022890610d4d565b915050610196565b5080610271576040517f08c379a000000000000000000000000000000000000000000000000000000000815260040161026890610df3565b60405180910390fd5b600083116102b4576040517f08c379a00000000000000000000000000000000000000000000000000000000081526004016102ab90610e85565b60405180910390fd5b600080600090505b855181101561034b578581815181106102d8576102d7610cef565b5b6020026020010151915084600260008473ffffffffffffffffffffffffffffffffffffffff1673ffffffffffffffffffffffffffffffffffffffff16815260200190815260200160002060008282546103319190610ea5565b92505081905550808061034390610d4d565b9150506102bc565b505050505050565b6000600260003373ffffffffffffffffffffffffffffffffffffffff1673ffffffffffffffffffffffffffffffffffffffff16815260200190815260200160002054905090565b6000600260003373ffffffffffffffffffffffffffffffffffffffff1673ffffffffffffffffffffffffffffffffffffffff168152602001908152602001600020541161041c576040517f08c379a000000000000000000000000000000000000000000000000000000000815260040161041390610f6d565b60405180910390fd5b600260003373ffffffffffffffffffffffffffffffffffffffff1673ffffffffffffffffffffffffffffffffffffffff16815260200190815260200160002054471161049d576040517f08c379a000000000000000000000000000000000000000000000000000000000815260040161049490610fff565b60405180910390fd5b6000600260003373ffffffffffffffffffffffffffffffffffffffff1673ffffffffffffffffffffffffffffffffffffffff1681526020019081526020016000205490506000600260003373ffffffffffffffffffffffffffffffffffffffff1673ffffffffffffffffffffffffffffffffffffffff168152602001908152602001600020819055503373ffffffffffffffffffffffffffffffffffffffff166108fc829081150290604051600060405180830381858888f193505050505050565b600080600080600090505b600180549050811015610604576001818154811061058b5761058a610cef565b5b9060005260206000200160009054906101000a900473ffffffffffffffffffffffffffffffffffffffff1692503373ffffffffffffffffffffffffffffffffffffffff168373ffffffffffffffffffffffffffffffffffffffff1614156105f157600191505b80806105fc90610d4d565b91505061056a565b5080610645576040517f08c379a000000000000000000000000000000000000000000000000000000000815260040161063c90610df3565b60405180910390fd5b479250505090565b3373ffffffffffffffffffffffffffffffffffffffff1660008054906101000a900473ffffffffffffffffffffffffffffffffffffffff1673ffffffffffffffffffffffffffffffffffffffff16146106a557600080fd5b6001819080600181540180825580915050600190039060005260206000200160009091909190916101000a81548173ffffffffffffffffffffffffffffffffffffffff021916908373ffffffffffffffffffffffffffffffffffffffff16021790555050565b6060600180548060200260200160405190810160405280929190818152602001828054801561078f57602002820191906000526020600020905b8160009054906101000a900473ffffffffffffffffffffffffffffffffffffffff1673ffffffffffffffffffffffffffffffffffffffff1681526020019060010190808311610745575b5050505050905090565b565b60008060005b60018054905081101561083b57600181815481106107c2576107c1610cef565b5b9060005260206000200160009054906101000a900473ffffffffffffffffffffffffffffffffffffffff1692503373ffffffffffffffffffffffffffffffffffffffff168373ffffffffffffffffffffffffffffffffffffffff16141561082857600191505b808061083390610d4d565b9150506107a1565b508061087c576040517f08c379a000000000000000000000000000000000000000000000000000000000815260040161087390610df3565b60405180910390fd5b600083116108bf576040517f08c379a00000000000000000000000000000000000000000000000000000000081526004016108b690610e85565b60405180910390fd5b82600260008673ffffffffffffffffffffffffffffffffffffffff1673ffffffffffffffffffffffffffffffffffffffff168152602001908152602001600020600082825461090e9190610ea5565b9250508190555050505050565b6000604051905090565b600080fd5b600080fd5b600080fd5b6000601f19601f8301169050919050565b7f4e487b7100000000000000000000000000000000000000000000000000000000600052604160045260246000fd5b61097d82610934565b810181811067ffffffffffffffff8211171561099c5761099b610945565b5b80604052505050565b60006109af61091b565b90506109bb8282610974565b919050565b600067ffffffffffffffff8211156109db576109da610945565b5b602082029050602081019050919050565b600080fd5b600073ffffffffffffffffffffffffffffffffffffffff82169050919050565b6000610a1c826109f1565b9050919050565b610a2c81610a11565b8114610a3757600080fd5b50565b600081359050610a4981610a23565b92915050565b6000610a62610a5d846109c0565b6109a5565b90508083825260208201905060208402830185811115610a8557610a846109ec565b5b835b81811015610aae5780610a9a8882610a3a565b845260208401935050602081019050610a87565b5050509392505050565b600082601f830112610acd57610acc61092f565b5b8135610add848260208601610a4f565b91505092915050565b6000819050919050565b610af981610ae6565b8114610b0457600080fd5b50565b600081359050610b1681610af0565b92915050565b60008060408385031215610b3357610b32610925565b5b600083013567ffffffffffffffff811115610b5157610b5061092a565b5b610b5d85828601610ab8565b9250506020610b6e85828601610b07565b9150509250929050565b610b8181610ae6565b82525050565b6000602082019050610b9c6000830184610b78565b92915050565b600060208284031215610bb857610bb7610925565b5b6000610bc684828501610a3a565b91505092915050565b600081519050919050565b600082825260208201905092915050565b6000819050602082019050919050565b610c0481610a11565b82525050565b6000610c168383610bfb565b60208301905092915050565b6000602082019050919050565b6000610c3a82610bcf565b610c448185610bda565b9350610c4f83610beb565b8060005b83811015610c80578151610c678882610c0a565b9750610c7283610c22565b925050600181019050610c53565b5085935050505092915050565b60006020820190508181036000830152610ca78184610c2f565b905092915050565b60008060408385031215610cc657610cc5610925565b5b6000610cd485828601610a3a565b9250506020610ce585828601610b07565b9150509250929050565b7f4e487b7100000000000000000000000000000000000000000000000000000000600052603260045260246000fd5b7f4e487b7100000000000000000000000000000000000000000000000000000000600052601160045260246000fd5b6000610d5882610ae6565b91507fffffffffffffffffffffffffffffffffffffffffffffffffffffffffffffffff821415610d8b57610d8a610d1e565b5b600182019050919050565b600082825260208201905092915050565b7f4852206e6f7420696e206c697374000000000000000000000000000000000000600082015250565b6000610ddd600e83610d96565b9150610de882610da7565b602082019050919050565b60006020820190508181036000830152610e0c81610dd0565b9050919050565b7f4d617469632073686f756c6420626520706f73697469766520696e746572676560008201527f7220000000000000000000000000000000000000000000000000000000000000602082015250565b6000610e6f602283610d96565b9150610e7a82610e13565b604082019050919050565b60006020820190508181036000830152610e9e81610e62565b9050919050565b6000610eb082610ae6565b9150610ebb83610ae6565b9250827fffffffffffffffffffffffffffffffffffffffffffffffffffffffffffffffff03821115610ef057610eef610d1e565b5b828201905092915050565b7f20456d706c6f79656520646f7365206e6f74206861766520656e6f756768206260008201527f616c616e636520746f2072656465656d2e000000000000000000000000000000602082015250565b6000610f57603183610d96565b9150610f6282610efb565b604082019050919050565b60006020820190508181036000830152610f8681610f4a565b9050919050565b7f436f6e747261637420646f73656e74206861766520656e6f7567682062616c6160008201527f6e636520746f2073656e6420697420746f20656d706c6f7965652e0000000000602082015250565b6000610fe9603b83610d96565b9150610ff482610f8d565b604082019050919050565b6000602082019050818103600083015261101881610fdc565b905091905056fea2646970667358221220176b9f9c966071e5a66fa0ebd28cf9a6d08b7d3e80a07748bc86a49673a8a75a64736f6c63430008090033",
  "linkReferences": {},
  "deployedLinkReferences": {}
}