{
  "_format": "hh-sol-artifact-1",
  "contractName": "MyEpicNFT",
  "sourceName": "contracts/MyEpicNFT.sol",
  "abi": [
    {
      "inputs": [],
      "stateMutability": "nonpayable",
      "type": "constructor"
    },
    {
      "anonymous": false,
      "inputs": [
        {
          "indexed": true,
          "internalType": "address",
          "name": "owner",
          "type": "address"
        },
        {
          "indexed": true,
          "internalType": "address",
          "name": "approved",
          "type": "address"
        },
        {
          "indexed": true,
          "internalType": "uint256",
          "name": "tokenId",
          "type": "uint256"
        }
      ],
      "name": "Approval",
      "type": "event"
    },
    {
      "anonymous": false,
      "inputs": [
        {
          "indexed": true,
          "internalType": "address",
          "name": "owner",
          "type": "address"
        },
        {
          "indexed": true,
          "internalType": "address",
          "name": "operator",
          "type": "address"
        },
        {
          "indexed": false,
          "internalType": "bool",
          "name": "approved",
          "type": "bool"
        }
      ],
      "name": "ApprovalForAll",
      "type": "event"
    },
    {
      "anonymous": false,
      "inputs": [
        {
          "indexed": false,
          "internalType": "address",
          "name": "sender",
          "type": "address"
        },
        {
          "indexed": false,
          "internalType": "uint256",
          "name": "tokenId",
          "type": "uint256"
        }
      ],
      "name": "NewEpicNFTMinted",
      "type": "event"
    },
    {
      "anonymous": false,
      "inputs": [
        {
          "indexed": true,
          "internalType": "address",
          "name": "from",
          "type": "address"
        },
        {
          "indexed": true,
          "internalType": "address",
          "name": "to",
          "type": "address"
        },
        {
          "indexed": true,
          "internalType": "uint256",
          "name": "tokenId",
          "type": "uint256"
        }
      ],
      "name": "Transfer",
      "type": "event"
    },
    {
      "inputs": [
        {
          "internalType": "address",
          "name": "to",
          "type": "address"
        },
        {
          "internalType": "uint256",
          "name": "tokenId",
          "type": "uint256"
        }
      ],
      "name": "approve",
      "outputs": [],
      "stateMutability": "nonpayable",
      "type": "function"
    },
    {
      "inputs": [
        {
          "internalType": "address",
          "name": "owner",
          "type": "address"
        }
      ],
      "name": "balanceOf",
      "outputs": [
        {
          "internalType": "uint256",
          "name": "",
          "type": "uint256"
        }
      ],
      "stateMutability": "view",
      "type": "function"
    },
    {
      "inputs": [
        {
          "internalType": "uint256",
          "name": "tokenId",
          "type": "uint256"
        }
      ],
      "name": "getApproved",
      "outputs": [
        {
          "internalType": "address",
          "name": "",
          "type": "address"
        }
      ],
      "stateMutability": "view",
      "type": "function"
    },
    {
      "inputs": [],
      "name": "getTotalNFTsMintedSoFar",
      "outputs": [
        {
          "internalType": "uint256",
          "name": "",
          "type": "uint256"
        }
      ],
      "stateMutability": "view",
      "type": "function"
    },
    {
      "inputs": [
        {
          "internalType": "address",
          "name": "owner",
          "type": "address"
        },
        {
          "internalType": "address",
          "name": "operator",
          "type": "address"
        }
      ],
      "name": "isApprovedForAll",
      "outputs": [
        {
          "internalType": "bool",
          "name": "",
          "type": "bool"
        }
      ],
      "stateMutability": "view",
      "type": "function"
    },
    {
      "inputs": [],
      "name": "makeAnEpicNFT",
      "outputs": [],
      "stateMutability": "nonpayable",
      "type": "function"
    },
    {
      "inputs": [],
      "name": "name",
      "outputs": [
        {
          "internalType": "string",
          "name": "",
          "type": "string"
        }
      ],
      "stateMutability": "view",
      "type": "function"
    },
    {
      "inputs": [
        {
          "internalType": "uint256",
          "name": "tokenId",
          "type": "uint256"
        }
      ],
      "name": "ownerOf",
      "outputs": [
        {
          "internalType": "address",
          "name": "",
          "type": "address"
        }
      ],
      "stateMutability": "view",
      "type": "function"
    },
    {
      "inputs": [
        {
          "internalType": "uint256",
          "name": "tokenID",
          "type": "uint256"
        }
      ],
      "name": "pickRandomBackgroundColor",
      "outputs": [
        {
          "internalType": "string",
          "name": "",
          "type": "string"
        }
      ],
      "stateMutability": "view",
      "type": "function"
    },
    {
      "inputs": [
        {
          "internalType": "uint256",
          "name": "tokenId",
          "type": "uint256"
        }
      ],
      "name": "pickRandomClass",
      "outputs": [
        {
          "internalType": "string",
          "name": "",
          "type": "string"
        }
      ],
      "stateMutability": "view",
      "type": "function"
    },
    {
      "inputs": [
        {
          "internalType": "uint256",
          "name": "tokenID",
          "type": "uint256"
        }
      ],
      "name": "pickRandomFillColor",
      "outputs": [
        {
          "internalType": "string",
          "name": "",
          "type": "string"
        }
      ],
      "stateMutability": "view",
      "type": "function"
    },
    {
      "inputs": [
        {
          "internalType": "uint256",
          "name": "tokenId",
          "type": "uint256"
        }
      ],
      "name": "pickRandomFirstName",
      "outputs": [
        {
          "internalType": "string",
          "name": "",
          "type": "string"
        }
      ],
      "stateMutability": "view",
      "type": "function"
    },
    {
      "inputs": [
        {
          "internalType": "uint256",
          "name": "tokenId",
          "type": "uint256"
        }
      ],
      "name": "pickRandomLastName",
      "outputs": [
        {
          "internalType": "string",
          "name": "",
          "type": "string"
        }
      ],
      "stateMutability": "view",
      "type": "function"
    },
    {
      "inputs": [
        {
          "internalType": "address",
          "name": "from",
          "type": "address"
        },
        {
          "internalType": "address",
          "name": "to",
          "type": "address"
        },
        {
          "internalType": "uint256",
          "name": "tokenId",
          "type": "uint256"
        }
      ],
      "name": "safeTransferFrom",
      "outputs": [],
      "stateMutability": "nonpayable",
      "type": "function"
    },
    {
      "inputs": [
        {
          "internalType": "address",
          "name": "from",
          "type": "address"
        },
        {
          "internalType": "address",
          "name": "to",
          "type": "address"
        },
        {
          "internalType": "uint256",
          "name": "tokenId",
          "type": "uint256"
        },
        {
          "internalType": "bytes",
          "name": "_data",
          "type": "bytes"
        }
      ],
      "name": "safeTransferFrom",
      "outputs": [],
      "stateMutability": "nonpayable",
      "type": "function"
    },
    {
      "inputs": [
        {
          "internalType": "address",
          "name": "operator",
          "type": "address"
        },
        {
          "internalType": "bool",
          "name": "approved",
          "type": "bool"
        }
      ],
      "name": "setApprovalForAll",
      "outputs": [],
      "stateMutability": "nonpayable",
      "type": "function"
    },
    {
      "inputs": [
        {
          "internalType": "bytes4",
          "name": "interfaceId",
          "type": "bytes4"
        }
      ],
      "name": "supportsInterface",
      "outputs": [
        {
          "internalType": "bool",
          "name": "",
          "type": "bool"
        }
      ],
      "stateMutability": "view",
      "type": "function"
    },
    {
      "inputs": [],
      "name": "symbol",
      "outputs": [
        {
          "internalType": "string",
          "name": "",
          "type": "string"
        }
      ],
      "stateMutability": "view",
      "type": "function"
    },
    {
      "inputs": [
        {
          "internalType": "uint256",
          "name": "tokenId",
          "type": "uint256"
        }
      ],
      "name": "tokenURI",
      "outputs": [
        {
          "internalType": "string",
          "name": "",
          "type": "string"
        }
      ],
      "stateMutability": "view",
      "type": "function"
    },
    {
      "inputs": [
        {
          "internalType": "address",
          "name": "from",
          "type": "address"
        },
        {
          "internalType": "address",
          "name": "to",
          "type": "address"
        },
        {
          "internalType": "uint256",
          "name": "tokenId",
          "type": "uint256"
        }
      ],
      "name": "transferFrom",
      "outputs": [],
      "stateMutability": "nonpayable",
      "type": "function"
    }
  ],
  "bytecode": "0x608060405260405180610100016040528060ce815260200162004ad960ce91396008908051906020019062000036929190620007fe565b506040518060400160405280601381526020017f273e3c2f726563743e3c672066696c6c3d2723000000000000000000000000008152506009908051906020019062000084929190620007fe565b50604051806101a00160405280610161815260200162004ba76101619139600a9080519060200190620000b9929190620007fe565b506040518061016001604052806040518060400160405280600781526020017f456477617264200000000000000000000000000000000000000000000000000081525081526020016040518060400160405280600781526020017f416c66726564200000000000000000000000000000000000000000000000000081525081526020016040518060400160405280600981526020017f436f7264656c696120000000000000000000000000000000000000000000000081525081526020016040518060400160405280600e81526020017f4c6f72656c656920556c7269632000000000000000000000000000000000000081525081526020016040518060400160405280600981526020017f416c61737461697220000000000000000000000000000000000000000000000081525081526020016040518060400160405280600881526020017f417474696375732000000000000000000000000000000000000000000000000081525081526020016040518060400160405280601b81526020017f4172796120436861726c6f74746520436f6e7374616e74696e6520000000000081525081526020016040518060400160405280600881526020017f4d6178696d75732000000000000000000000000000000000000000000000000081525081526020016040518060400160405280600681526020017f466564726120000000000000000000000000000000000000000000000000000081525081526020016040518060400160405280600681526020017f436173636120000000000000000000000000000000000000000000000000000081525081526020016040518060400160405280600581526020017f4e616d6920000000000000000000000000000000000000000000000000000000815250815250600b90600b6200035f9291906200088f565b506040518061010001604052806040518060400160405280600681526020017f4d616e6e6976000000000000000000000000000000000000000000000000000081525081526020016040518060400160405280600881526020017f53796c657374696100000000000000000000000000000000000000000000000081525081526020016040518060400160405280600981526020017f44757368617369657a000000000000000000000000000000000000000000000081525081526020016040518060400160405280600381526020017f596f73000000000000000000000000000000000000000000000000000000000081525081526020016040518060400160405280600581526020017f5975656c6100000000000000000000000000000000000000000000000000000081525081526020016040518060400160405280600481526020017f416d65730000000000000000000000000000000000000000000000000000000081525081526020016040518060400160405280600581526020017f446f6d6f7300000000000000000000000000000000000000000000000000000081525081526020016040518060400160405280600a81526020017f55726b656e7376616c6c00000000000000000000000000000000000000000000815250815250600c90600862000554929190620008f6565b506040518061010001604052806040518060400160405280600681526020017f2c2042617264000000000000000000000000000000000000000000000000000081525081526020016040518060400160405280600881526020017f2c20436c6572696300000000000000000000000000000000000000000000000081525081526020016040518060400160405280600981526020017f2c2046696768746572000000000000000000000000000000000000000000000081525081526020016040518060400160405280600681526020017f2c204d6f6e6b000000000000000000000000000000000000000000000000000081525081526020016040518060400160405280600981526020017f2c2050616c6164696e000000000000000000000000000000000000000000000081525081526020016040518060400160405280600781526020017f2c20526f6775650000000000000000000000000000000000000000000000000081525081526020016040518060400160405280600a81526020017f2c20536f7263657265720000000000000000000000000000000000000000000081525081526020016040518060400160405280600881526020017f2c2057697a617264000000000000000000000000000000000000000000000000815250815250600d90600862000749929190620008f6565b503480156200075757600080fd5b506040518060400160405280601081526020017f416476656e7475726572204e616d6573000000000000000000000000000000008152506040518060400160405280600381526020017f41444300000000000000000000000000000000000000000000000000000000008152508160009080519060200190620007dc929190620007fe565b508060019080519060200190620007f5929190620007fe565b50505062000a4f565b8280546200080c90620009ea565b90600052602060002090601f0160209004810192826200083057600085556200087c565b82601f106200084b57805160ff19168380011785556200087c565b828001600101855582156200087c579182015b828111156200087b5782518255916020019190600101906200085e565b5b5090506200088b91906200095d565b5090565b828054828255906000526020600020908101928215620008e3579160200282015b82811115620008e2578251829080519060200190620008d1929190620007fe565b5091602001919060010190620008b0565b5b509050620008f291906200097c565b5090565b8280548282559060005260206000209081019282156200094a579160200282015b828111156200094957825182908051906020019062000938929190620007fe565b509160200191906001019062000917565b5b5090506200095991906200097c565b5090565b5b80821115620009785760008160009055506001016200095e565b5090565b5b80821115620009a05760008181620009969190620009a4565b506001016200097d565b5090565b508054620009b290620009ea565b6000825580601f10620009c65750620009e7565b601f016020900490600052602060002090810190620009e691906200095d565b5b50565b6000600282049050600182168062000a0357607f821691505b6020821081141562000a1a5762000a1962000a20565b5b50919050565b7f4e487b7100000000000000000000000000000000000000000000000000000000600052602260045260246000fd5b61407a8062000a5f6000396000f3fe608060405234801561001057600080fd5b506004361061012c5760003560e01c806370a08231116100ad578063c87b56dd11610071578063c87b56dd14610367578063de9d132f14610397578063e71ed91d146103a1578063e985e9c5146103d1578063f9fec0ee146104015761012c565b806370a08231146102b157806376f5efd1146102e157806395d89b4114610311578063a22cb4651461032f578063b88d4fde1461034b5761012c565b8063095ea7b3116100f4578063095ea7b3146101fd57806323b872dd1461021957806342842e0e1461023557806351c4d62a146102515780636352211e146102815761012c565b806301ffc9a714610131578063060475901461016157806306fdde031461017f57806307b0e3ba1461019d578063081812fc146101cd575b600080fd5b61014b600480360381019061014691906129c8565b610431565b60405161015891906131b3565b60405180910390f35b610169610513565b604051610176919061344e565b60405180910390f35b610187610524565b60405161019491906131ce565b60405180910390f35b6101b760048036038101906101b29190612a1a565b6105b6565b6040516101c491906131ce565b60405180910390f35b6101e760048036038101906101e29190612a1a565b6106d4565b6040516101f49190613123565b60405180910390f35b6102176004803603810190610212919061298c565b610759565b005b610233600480360381019061022e9190612886565b610871565b005b61024f600480360381019061024a9190612886565b6108d1565b005b61026b60048036038101906102669190612a1a565b6108f1565b60405161027891906131ce565b60405180910390f35b61029b60048036038101906102969190612a1a565b610a0f565b6040516102a89190613123565b60405180910390f35b6102cb60048036038101906102c69190612821565b610ac1565b6040516102d8919061344e565b60405180910390f35b6102fb60048036038101906102f69190612a1a565b610b79565b60405161030891906131ce565b60405180910390f35b610319610c0f565b60405161032691906131ce565b60405180910390f35b61034960048036038101906103449190612950565b610ca1565b005b610365600480360381019061036091906128d5565b610cb7565b005b610381600480360381019061037c9190612a1a565b610d19565b60405161038e91906131ce565b60405180910390f35b61039f610e6b565b005b6103bb60048036038101906103b69190612a1a565b61117f565b6040516103c891906131ce565b60405180910390f35b6103eb60048036038101906103e6919061284a565b611215565b6040516103f891906131b3565b60405180910390f35b61041b60048036038101906104169190612a1a565b6112a9565b60405161042891906131ce565b60405180910390f35b60007f80ac58cd000000000000000000000000000000000000000000000000000000007bffffffffffffffffffffffffffffffffffffffffffffffffffffffff1916827bffffffffffffffffffffffffffffffffffffffffffffffffffffffff191614806104fc57507f5b5e139f000000000000000000000000000000000000000000000000000000007bffffffffffffffffffffffffffffffffffffffffffffffffffffffff1916827bffffffffffffffffffffffffffffffffffffffffffffffffffffffff1916145b8061050c575061050b826113c7565b5b9050919050565b600061051f6007611431565b905090565b60606000805461053390613726565b80601f016020809104026020016040519081016040528092919081815260200182805461055f90613726565b80156105ac5780601f10610581576101008083540402835291602001916105ac565b820191906000526020600020905b81548152906001019060200180831161058f57829003601f168201915b5050505050905090565b606060006105ea6105c68461143f565b6040516020016105d69190613034565b6040516020818303038152906040526115ec565b9050600b80549050816105fd91906137d2565b9050600b8181548110610639577f4e487b7100000000000000000000000000000000000000000000000000000000600052603260045260246000fd5b90600052602060002001805461064e90613726565b80601f016020809104026020016040519081016040528092919081815260200182805461067a90613726565b80156106c75780601f1061069c576101008083540402835291602001916106c7565b820191906000526020600020905b8154815290600101906020018083116106aa57829003601f168201915b5050505050915050919050565b60006106df8261161f565b61071e576040517f08c379a0000000000000000000000000000000000000000000000000000000008152600401610715906133ce565b60405180910390fd5b6004600083815260200190815260200160002060009054906101000a900473ffffffffffffffffffffffffffffffffffffffff169050919050565b600061076482610a0f565b90508073ffffffffffffffffffffffffffffffffffffffff168373ffffffffffffffffffffffffffffffffffffffff1614156107d5576040517f08c379a00000000000000000000000000000000000000000000000000000000081526004016107cc9061340e565b60405180910390fd5b8073ffffffffffffffffffffffffffffffffffffffff166107f461168b565b73ffffffffffffffffffffffffffffffffffffffff16148061082357506108228161081d61168b565b611215565b5b610862576040517f08c379a00000000000000000000000000000000000000000000000000000000081526004016108599061330e565b60405180910390fd5b61086c8383611693565b505050565b61088261087c61168b565b8261174c565b6108c1576040517f08c379a00000000000000000000000000000000000000000000000000000000081526004016108b89061342e565b60405180910390fd5b6108cc83838361182a565b505050565b6108ec83838360405180602001604052806000815250610cb7565b505050565b606060006109256109018461143f565b6040516020016109119190613101565b6040516020818303038152906040526115ec565b9050600c805490508161093891906137d2565b9050600c8181548110610974577f4e487b7100000000000000000000000000000000000000000000000000000000600052603260045260246000fd5b90600052602060002001805461098990613726565b80601f01602080910402602001604051908101604052809291908181526020018280546109b590613726565b8015610a025780601f106109d757610100808354040283529160200191610a02565b820191906000526020600020905b8154815290600101906020018083116109e557829003601f168201915b5050505050915050919050565b6000806002600084815260200190815260200160002060009054906101000a900473ffffffffffffffffffffffffffffffffffffffff169050600073ffffffffffffffffffffffffffffffffffffffff168173ffffffffffffffffffffffffffffffffffffffff161415610ab8576040517f08c379a0000000000000000000000000000000000000000000000000000000008152600401610aaf9061334e565b60405180910390fd5b80915050919050565b60008073ffffffffffffffffffffffffffffffffffffffff168273ffffffffffffffffffffffffffffffffffffffff161415610b32576040517f08c379a0000000000000000000000000000000000000000000000000000000008152600401610b299061332e565b60405180910390fd5b600360008373ffffffffffffffffffffffffffffffffffffffff1673ffffffffffffffffffffffffffffffffffffffff168152602001908152602001600020549050919050565b60606000610bad610b898461143f565b604051602001610b999190613012565b6040516020818303038152906040526115ec565b9050620186a0620f423f82610bc291906137d2565b610bcc9190613517565b90505b620f423f811115610bfe57620186a0620f423f82610bed91906137d2565b610bf79190613517565b9050610bcf565b610c0781611a91565b915050919050565b606060018054610c1e90613726565b80601f0160208091040260200160405190810160405280929190818152602001828054610c4a90613726565b8015610c975780601f10610c6c57610100808354040283529160200191610c97565b820191906000526020600020905b815481529060010190602001808311610c7a57829003601f168201915b5050505050905090565b610cb3610cac61168b565b8383611c66565b5050565b610cc8610cc261168b565b8361174c565b610d07576040517f08c379a0000000000000000000000000000000000000000000000000000000008152600401610cfe9061342e565b60405180910390fd5b610d1384848484611dd3565b50505050565b6060610d248261161f565b610d63576040517f08c379a0000000000000000000000000000000000000000000000000000000008152600401610d5a906133ae565b60405180910390fd5b6000600660008481526020019081526020016000208054610d8390613726565b80601f0160208091040260200160405190810160405280929190818152602001828054610daf90613726565b8015610dfc5780601f10610dd157610100808354040283529160200191610dfc565b820191906000526020600020905b815481529060010190602001808311610ddf57829003601f168201915b505050505090506000610e0d611e2f565b9050600081511415610e23578192505050610e66565b600082511115610e58578082604051602001610e40929190612f5a565b60405160208183030381529060405292505050610e66565b610e6184611e46565b925050505b919050565b6000610e776007611431565b90506101a48110610ebd576040517f08c379a0000000000000000000000000000000000000000000000000000000008152600401610eb49061322e565b60405180910390fd5b610efb6040518060400160405280600581526020017f68656c6c6f000000000000000000000000000000000000000000000000000000815250611eed565b6000610f068261117f565b90506000610f1383610b79565b90506000610f20846105b6565b90506000610f2d856108f1565b90506000610f3a866112a9565b90506000838383604051602001610f5393929190612f7e565b60405160208183030381529060405290506000600887600988600a86604051602001610f8496959493929190612faf565b6040516020818303038152906040529050610fd36040518060400160405280601581526020017f0a2d2d2d2d2d2d2d2d2d2d2d2d2d2d2d2d2d2d2d2d0000000000000000000000815250611eed565b610fdc81611eed565b61101a6040518060400160405280601581526020017f2d2d2d2d2d2d2d2d2d2d2d2d2d2d2d2d2d2d2d2d0a0000000000000000000000815250611eed565b600061104e8361102984611f86565b60405160200161103a92919061309a565b604051602081830303815290604052611f86565b905060008160405160200161106391906130df565b60405160208183030381529060405290506110b26040518060400160405280601581526020017f0a2d2d2d2d2d2d2d2d2d2d2d2d2d2d2d2d2d2d2d2d0000000000000000000000815250611eed565b6110bb81611eed565b6110f96040518060400160405280601581526020017f2d2d2d2d2d2d2d2d2d2d2d2d2d2d2d2d2d2d2d2d0a0000000000000000000000815250611eed565b611103338b612144565b61110d8a82612162565b61111760076121d6565b61113a604051806060016040528060258152602001613fe0602591398b336121ec565b7febb98688741ffa4c7589bf325de30cf7becb63de567842e1ccdb6cb949fdc82c338b60405161116b92919061318a565b60405180910390a150505050505050505050565b606060006111b361118f8461143f565b60405160200161119f9190613056565b6040516020818303038152906040526115ec565b9050620186a0620f423f826111c891906137d2565b6111d29190613517565b90505b620f423f81111561120457620186a0620f423f826111f391906137d2565b6111fd9190613517565b90506111d5565b61120d81611a91565b915050919050565b6000600560008473ffffffffffffffffffffffffffffffffffffffff1673ffffffffffffffffffffffffffffffffffffffff16815260200190815260200160002060008373ffffffffffffffffffffffffffffffffffffffff1673ffffffffffffffffffffffffffffffffffffffff16815260200190815260200160002060009054906101000a900460ff16905092915050565b606060006112dd6112b98461143f565b6040516020016112c99190613078565b6040516020818303038152906040526115ec565b9050600d80549050816112f091906137d2565b9050600d818154811061132c577f4e487b7100000000000000000000000000000000000000000000000000000000600052603260045260246000fd5b90600052602060002001805461134190613726565b80601f016020809104026020016040519081016040528092919081815260200182805461136d90613726565b80156113ba5780601f1061138f576101008083540402835291602001916113ba565b820191906000526020600020905b81548152906001019060200180831161139d57829003601f168201915b5050505050915050919050565b60007f01ffc9a7000000000000000000000000000000000000000000000000000000007bffffffffffffffffffffffffffffffffffffffffffffffffffffffff1916827bffffffffffffffffffffffffffffffffffffffffffffffffffffffff1916149050919050565b600081600001549050919050565b60606000821415611487576040518060400160405280600181526020017f300000000000000000000000000000000000000000000000000000000000000081525090506115e7565b600082905060005b600082146114b95780806114a290613789565b915050600a826114b291906135a4565b915061148f565b60008167ffffffffffffffff8111156114fb577f4e487b7100000000000000000000000000000000000000000000000000000000600052604160045260246000fd5b6040519080825280601f01601f19166020018201604052801561152d5781602001600182028036833780820191505090505b5090505b600085146115e057600182611546919061362f565b9150600a8561155591906137d2565b60306115619190613517565b60f81b81838151811061159d577f4e487b7100000000000000000000000000000000000000000000000000000000600052603260045260246000fd5b60200101907effffffffffffffffffffffffffffffffffffffffffffffffffffffffffffff1916908160001a905350600a856115d991906135a4565b9450611531565b8093505050505b919050565b6000816040516020016115ff9190612f43565b6040516020818303038152906040528051906020012060001c9050919050565b60008073ffffffffffffffffffffffffffffffffffffffff166002600084815260200190815260200160002060009054906101000a900473ffffffffffffffffffffffffffffffffffffffff1673ffffffffffffffffffffffffffffffffffffffff1614159050919050565b600033905090565b816004600083815260200190815260200160002060006101000a81548173ffffffffffffffffffffffffffffffffffffffff021916908373ffffffffffffffffffffffffffffffffffffffff160217905550808273ffffffffffffffffffffffffffffffffffffffff1661170683610a0f565b73ffffffffffffffffffffffffffffffffffffffff167f8c5be1e5ebec7d5bd14f71427d1e84f3dd0314c0f7b2291e5b200ac8c7c3b92560405160405180910390a45050565b60006117578261161f565b611796576040517f08c379a000000000000000000000000000000000000000000000000000000000815260040161178d906132ee565b60405180910390fd5b60006117a183610a0f565b90508073ffffffffffffffffffffffffffffffffffffffff168473ffffffffffffffffffffffffffffffffffffffff16148061181057508373ffffffffffffffffffffffffffffffffffffffff166117f8846106d4565b73ffffffffffffffffffffffffffffffffffffffff16145b8061182157506118208185611215565b5b91505092915050565b8273ffffffffffffffffffffffffffffffffffffffff1661184a82610a0f565b73ffffffffffffffffffffffffffffffffffffffff16146118a0576040517f08c379a00000000000000000000000000000000000000000000000000000000081526004016118979061326e565b60405180910390fd5b600073ffffffffffffffffffffffffffffffffffffffff168273ffffffffffffffffffffffffffffffffffffffff161415611910576040517f08c379a0000000000000000000000000000000000000000000000000000000008152600401611907906132ae565b60405180910390fd5b61191b83838361228b565b611926600082611693565b6001600360008573ffffffffffffffffffffffffffffffffffffffff1673ffffffffffffffffffffffffffffffffffffffff1681526020019081526020016000206000828254611976919061362f565b925050819055506001600360008473ffffffffffffffffffffffffffffffffffffffff1673ffffffffffffffffffffffffffffffffffffffff16815260200190815260200160002060008282546119cd9190613517565b92505081905550816002600083815260200190815260200160002060006101000a81548173ffffffffffffffffffffffffffffffffffffffff021916908373ffffffffffffffffffffffffffffffffffffffff160217905550808273ffffffffffffffffffffffffffffffffffffffff168473ffffffffffffffffffffffffffffffffffffffff167fddf252ad1be2c89b69c2b068fc378daa952ba7f163c4a11628f55a4df523b3ef60405160405180910390a4611a8c838383612290565b505050565b60606000821415611ad9576040518060400160405280600181526020017f30000000000000000000000000000000000000000000000000000000000000008152509050611c61565b600082905060005b60008214611b0b578080611af490613789565b915050600a82611b0491906135a4565b9150611ae1565b60008167ffffffffffffffff811115611b4d577f4e487b7100000000000000000000000000000000000000000000000000000000600052604160045260246000fd5b6040519080825280601f01601f191660200182016040528015611b7f5781602001600182028036833780820191505090505b50905060008290505b60008614611c5957600181611b9d919061362f565b90506000600a8088611baf91906135a4565b611bb991906135d5565b87611bc4919061362f565b6030611bd0919061356d565b905060008160f81b905080848481518110611c14577f4e487b7100000000000000000000000000000000000000000000000000000000600052603260045260246000fd5b60200101907effffffffffffffffffffffffffffffffffffffffffffffffffffffffffffff1916908160001a905350600a88611c5091906135a4565b97505050611b88565b819450505050505b919050565b8173ffffffffffffffffffffffffffffffffffffffff168373ffffffffffffffffffffffffffffffffffffffff161415611cd5576040517f08c379a0000000000000000000000000000000000000000000000000000000008152600401611ccc906132ce565b60405180910390fd5b80600560008573ffffffffffffffffffffffffffffffffffffffff1673ffffffffffffffffffffffffffffffffffffffff16815260200190815260200160002060008473ffffffffffffffffffffffffffffffffffffffff1673ffffffffffffffffffffffffffffffffffffffff16815260200190815260200160002060006101000a81548160ff0219169083151502179055508173ffffffffffffffffffffffffffffffffffffffff168373ffffffffffffffffffffffffffffffffffffffff167f17307eab39ab6107e8899845ad3d59bd9653f200f220920489ca2b5937696c3183604051611dc691906131b3565b60405180910390a3505050565b611dde84848461182a565b611dea84848484612295565b611e29576040517f08c379a0000000000000000000000000000000000000000000000000000000008152600401611e209061324e565b60405180910390fd5b50505050565b606060405180602001604052806000815250905090565b6060611e518261161f565b611e90576040517f08c379a0000000000000000000000000000000000000000000000000000000008152600401611e87906133ee565b60405180910390fd5b6000611e9a611e2f565b90506000815111611eba5760405180602001604052806000815250611ee5565b80611ec48461143f565b604051602001611ed5929190612f5a565b6040516020818303038152906040525b915050919050565b611f8381604051602401611f0191906131ce565b6040516020818303038152906040527f41304fac000000000000000000000000000000000000000000000000000000007bffffffffffffffffffffffffffffffffffffffffffffffffffffffff19166020820180517bffffffffffffffffffffffffffffffffffffffffffffffffffffffff838183161783525050505061242c565b50565b60606000825190506000811415611faf576040518060200160405280600081525091505061213f565b60006003600283611fc09190613517565b611fca91906135a4565b6004611fd691906135d5565b90506000602082611fe79190613517565b67ffffffffffffffff811115612026577f4e487b7100000000000000000000000000000000000000000000000000000000600052604160045260246000fd5b6040519080825280601f01601f1916602001820160405280156120585781602001600182028036833780820191505090505b5090506000604051806060016040528060408152602001614005604091399050600181016020830160005b868110156120fc5760038101905062ffffff818a015116603f8160121c168401518060081b905060ff603f83600c1c1686015116810190508060081b905060ff603f8360061c1686015116810190508060081b905060ff603f831686015116810190508060e01b90508084526004840193505050612083565b506003860660018114612116576002811461212657612131565b613d3d60f01b6002830352612131565b603d60f81b60018303525b508484525050819450505050505b919050565b61215e828260405180602001604052806000815250612455565b5050565b61216b8261161f565b6121aa576040517f08c379a00000000000000000000000000000000000000000000000000000000081526004016121a19061336e565b60405180910390fd5b806006600084815260200190815260200160002090805190602001906121d19291906126ad565b505050565b6001816000016000828254019250508190555050565b612286838383604051602401612204939291906131f0565b6040516020818303038152906040527fe3849f79000000000000000000000000000000000000000000000000000000007bffffffffffffffffffffffffffffffffffffffffffffffffffffffff19166020820180517bffffffffffffffffffffffffffffffffffffffffffffffffffffffff838183161783525050505061242c565b505050565b505050565b505050565b60006122b68473ffffffffffffffffffffffffffffffffffffffff166124b0565b1561241f578373ffffffffffffffffffffffffffffffffffffffff1663150b7a026122df61168b565b8786866040518563ffffffff1660e01b8152600401612301949392919061313e565b602060405180830381600087803b15801561231b57600080fd5b505af192505050801561234c57506040513d601f19601f8201168201806040525081019061234991906129f1565b60015b6123cf573d806000811461237c576040519150601f19603f3d011682016040523d82523d6000602084013e612381565b606091505b506000815114156123c7576040517f08c379a00000000000000000000000000000000000000000000000000000000081526004016123be9061324e565b60405180910390fd5b805181602001fd5b63150b7a0260e01b7bffffffffffffffffffffffffffffffffffffffffffffffffffffffff1916817bffffffffffffffffffffffffffffffffffffffffffffffffffffffff191614915050612424565b600190505b949350505050565b60008151905060006a636f6e736f6c652e6c6f679050602083016000808483855afa5050505050565b61245f83836124d3565b61246c6000848484612295565b6124ab576040517f08c379a00000000000000000000000000000000000000000000000000000000081526004016124a29061324e565b60405180910390fd5b505050565b6000808273ffffffffffffffffffffffffffffffffffffffff163b119050919050565b600073ffffffffffffffffffffffffffffffffffffffff168273ffffffffffffffffffffffffffffffffffffffff161415612543576040517f08c379a000000000000000000000000000000000000000000000000000000000815260040161253a9061338e565b60405180910390fd5b61254c8161161f565b1561258c576040517f08c379a00000000000000000000000000000000000000000000000000000000081526004016125839061328e565b60405180910390fd5b6125986000838361228b565b6001600360008473ffffffffffffffffffffffffffffffffffffffff1673ffffffffffffffffffffffffffffffffffffffff16815260200190815260200160002060008282546125e89190613517565b92505081905550816002600083815260200190815260200160002060006101000a81548173ffffffffffffffffffffffffffffffffffffffff021916908373ffffffffffffffffffffffffffffffffffffffff160217905550808273ffffffffffffffffffffffffffffffffffffffff16600073ffffffffffffffffffffffffffffffffffffffff167fddf252ad1be2c89b69c2b068fc378daa952ba7f163c4a11628f55a4df523b3ef60405160405180910390a46126a960008383612290565b5050565b8280546126b990613726565b90600052602060002090601f0160209004810192826126db5760008555612722565b82601f106126f457805160ff1916838001178555612722565b82800160010185558215612722579182015b82811115612721578251825591602001919060010190612706565b5b50905061272f9190612733565b5090565b5b8082111561274c576000816000905550600101612734565b5090565b600061276361275e8461348e565b613469565b90508281526020810184848401111561277b57600080fd5b6127868482856136e4565b509392505050565b60008135905061279d81613f83565b92915050565b6000813590506127b281613f9a565b92915050565b6000813590506127c781613fb1565b92915050565b6000815190506127dc81613fb1565b92915050565b600082601f8301126127f357600080fd5b8135612803848260208601612750565b91505092915050565b60008135905061281b81613fc8565b92915050565b60006020828403121561283357600080fd5b60006128418482850161278e565b91505092915050565b6000806040838503121561285d57600080fd5b600061286b8582860161278e565b925050602061287c8582860161278e565b9150509250929050565b60008060006060848603121561289b57600080fd5b60006128a98682870161278e565b93505060206128ba8682870161278e565b92505060406128cb8682870161280c565b9150509250925092565b600080600080608085870312156128eb57600080fd5b60006128f98782880161278e565b945050602061290a8782880161278e565b935050604061291b8782880161280c565b925050606085013567ffffffffffffffff81111561293857600080fd5b612944878288016127e2565b91505092959194509250565b6000806040838503121561296357600080fd5b60006129718582860161278e565b9250506020612982858286016127a3565b9150509250929050565b6000806040838503121561299f57600080fd5b60006129ad8582860161278e565b92505060206129be8582860161280c565b9150509250929050565b6000602082840312156129da57600080fd5b60006129e8848285016127b8565b91505092915050565b600060208284031215612a0357600080fd5b6000612a11848285016127cd565b91505092915050565b600060208284031215612a2c57600080fd5b6000612a3a8482850161280c565b91505092915050565b612a4c81613663565b82525050565b612a5b81613675565b82525050565b6000612a6c826134d4565b612a7681856134ea565b9350612a868185602086016136f3565b612a8f816138bf565b840191505092915050565b6000612aa5826134df565b612aaf81856134fb565b9350612abf8185602086016136f3565b612ac8816138bf565b840191505092915050565b6000612ade826134df565b612ae8818561350c565b9350612af88185602086016136f3565b80840191505092915050565b60008154612b1181613726565b612b1b818661350c565b94506001821660008114612b365760018114612b4757612b7a565b60ff19831686528186019350612b7a565b612b50856134bf565b60005b83811015612b7257815481890152600182019150602081019050612b53565b838801955050505b50505092915050565b6000612b906028836134fb565b9150612b9b826138d0565b604082019050919050565b6000612bb360118361350c565b9150612bbe8261391f565b601182019050919050565b6000612bd66032836134fb565b9150612be182613948565b604082019050919050565b6000612bf96025836134fb565b9150612c0482613997565b604082019050919050565b6000612c1c601c836134fb565b9150612c27826139e6565b602082019050919050565b6000612c3f600a8361350c565b9150612c4a82613a0f565b600a82019050919050565b6000612c626024836134fb565b9150612c6d82613a38565b604082019050919050565b6000612c856019836134fb565b9150612c9082613a87565b602082019050919050565b6000612ca8602c836134fb565b9150612cb382613ab0565b604082019050919050565b6000612ccb6038836134fb565b9150612cd682613aff565b604082019050919050565b6000612cee602a836134fb565b9150612cf982613b4e565b604082019050919050565b6000612d116029836134fb565b9150612d1c82613b9d565b604082019050919050565b6000612d3460178361350c565b9150612d3f82613bec565b601782019050919050565b6000612d57602e836134fb565b9150612d6282613c15565b604082019050919050565b6000612d7a60028361350c565b9150612d8582613c64565b600282019050919050565b6000612d9d6020836134fb565b9150612da882613c8d565b602082019050919050565b6000612dc06031836134fb565b9150612dcb82613cb6565b604082019050919050565b6000612de360058361350c565b9150612dee82613d05565b600582019050919050565b6000612e06602c836134fb565b9150612e1182613d2e565b604082019050919050565b6000612e29602f836134fb565b9150612e3482613d7d565b604082019050919050565b6000612e4c600a8361350c565b9150612e5782613dcc565b600a82019050919050565b6000612e6f6021836134fb565b9150612e7a82613df5565b604082019050919050565b6000612e92601d8361350c565b9150612e9d82613e44565b601d82019050919050565b6000612eb560118361350c565b9150612ec082613e6d565b601182019050919050565b6000612ed86031836134fb565b9150612ee382613e96565b604082019050919050565b6000612efb60098361350c565b9150612f0682613ee5565b600982019050919050565b6000612f1e60548361350c565b9150612f2982613f0e565b605482019050919050565b612f3d816136cd565b82525050565b6000612f4f8284612ad3565b915081905092915050565b6000612f668285612ad3565b9150612f728284612ad3565b91508190509392505050565b6000612f8a8286612ad3565b9150612f968285612ad3565b9150612fa28284612ad3565b9150819050949350505050565b6000612fbb8289612b04565b9150612fc78288612ad3565b9150612fd38287612b04565b9150612fdf8286612ad3565b9150612feb8285612b04565b9150612ff78284612ad3565b915061300282612ea8565b9150819050979650505050505050565b600061301d82612ba6565b91506130298284612ad3565b915081905092915050565b600061303f82612c32565b915061304b8284612ad3565b915081905092915050565b600061306182612d27565b915061306d8284612ad3565b915081905092915050565b600061308382612dd6565b915061308f8284612ad3565b915081905092915050565b60006130a582612e3f565b91506130b18285612ad3565b91506130bc82612f11565b91506130c88284612ad3565b91506130d382612d6d565b91508190509392505050565b60006130ea82612e85565b91506130f68284612ad3565b915081905092915050565b600061310c82612eee565b91506131188284612ad3565b915081905092915050565b60006020820190506131386000830184612a43565b92915050565b60006080820190506131536000830187612a43565b6131606020830186612a43565b61316d6040830185612f34565b818103606083015261317f8184612a61565b905095945050505050565b600060408201905061319f6000830185612a43565b6131ac6020830184612f34565b9392505050565b60006020820190506131c86000830184612a52565b92915050565b600060208201905081810360008301526131e88184612a9a565b905092915050565b6000606082019050818103600083015261320a8186612a9a565b90506132196020830185612f34565b6132266040830184612a43565b949350505050565b6000602082019050818103600083015261324781612b83565b9050919050565b6000602082019050818103600083015261326781612bc9565b9050919050565b6000602082019050818103600083015261328781612bec565b9050919050565b600060208201905081810360008301526132a781612c0f565b9050919050565b600060208201905081810360008301526132c781612c55565b9050919050565b600060208201905081810360008301526132e781612c78565b9050919050565b6000602082019050818103600083015261330781612c9b565b9050919050565b6000602082019050818103600083015261332781612cbe565b9050919050565b6000602082019050818103600083015261334781612ce1565b9050919050565b6000602082019050818103600083015261336781612d04565b9050919050565b6000602082019050818103600083015261338781612d4a565b9050919050565b600060208201905081810360008301526133a781612d90565b9050919050565b600060208201905081810360008301526133c781612db3565b9050919050565b600060208201905081810360008301526133e781612df9565b9050919050565b6000602082019050818103600083015261340781612e1c565b9050919050565b6000602082019050818103600083015261342781612e62565b9050919050565b6000602082019050818103600083015261344781612ecb565b9050919050565b60006020820190506134636000830184612f34565b92915050565b6000613473613484565b905061347f8282613758565b919050565b6000604051905090565b600067ffffffffffffffff8211156134a9576134a8613890565b5b6134b2826138bf565b9050602081019050919050565b60008190508160005260206000209050919050565b600081519050919050565b600081519050919050565b600082825260208201905092915050565b600082825260208201905092915050565b600081905092915050565b6000613522826136cd565b915061352d836136cd565b9250827fffffffffffffffffffffffffffffffffffffffffffffffffffffffffffffffff0382111561356257613561613803565b5b828201905092915050565b6000613578826136d7565b9150613583836136d7565b92508260ff0382111561359957613598613803565b5b828201905092915050565b60006135af826136cd565b91506135ba836136cd565b9250826135ca576135c9613832565b5b828204905092915050565b60006135e0826136cd565b91506135eb836136cd565b9250817fffffffffffffffffffffffffffffffffffffffffffffffffffffffffffffffff048311821515161561362457613623613803565b5b828202905092915050565b600061363a826136cd565b9150613645836136cd565b92508282101561365857613657613803565b5b828203905092915050565b600061366e826136ad565b9050919050565b60008115159050919050565b60007fffffffff0000000000000000000000000000000000000000000000000000000082169050919050565b600073ffffffffffffffffffffffffffffffffffffffff82169050919050565b6000819050919050565b600060ff82169050919050565b82818337600083830152505050565b60005b838110156137115780820151818401526020810190506136f6565b83811115613720576000848401525b50505050565b6000600282049050600182168061373e57607f821691505b6020821081141561375257613751613861565b5b50919050565b613761826138bf565b810181811067ffffffffffffffff821117156137805761377f613890565b5b80604052505050565b6000613794826136cd565b91507fffffffffffffffffffffffffffffffffffffffffffffffffffffffffffffffff8214156137c7576137c6613803565b5b600182019050919050565b60006137dd826136cd565b91506137e8836136cd565b9250826137f8576137f7613832565b5b828206905092915050565b7f4e487b7100000000000000000000000000000000000000000000000000000000600052601160045260246000fd5b7f4e487b7100000000000000000000000000000000000000000000000000000000600052601260045260246000fd5b7f4e487b7100000000000000000000000000000000000000000000000000000000600052602260045260246000fd5b7f4e487b7100000000000000000000000000000000000000000000000000000000600052604160045260246000fd5b6000601f19601f8301169050919050565b7f4d617820416d6f756e74206f6620343230204e4654277320686173206265656e60008201527f2072656163686564000000000000000000000000000000000000000000000000602082015250565b7f52414e444f4d5f46494c4c5f434f4c4f52000000000000000000000000000000600082015250565b7f4552433732313a207472616e7366657220746f206e6f6e20455243373231526560008201527f63656976657220696d706c656d656e7465720000000000000000000000000000602082015250565b7f4552433732313a207472616e736665722066726f6d20696e636f72726563742060008201527f6f776e6572000000000000000000000000000000000000000000000000000000602082015250565b7f4552433732313a20746f6b656e20616c7265616479206d696e74656400000000600082015250565b7f46495253545f4e414d4500000000000000000000000000000000000000000000600082015250565b7f4552433732313a207472616e7366657220746f20746865207a65726f2061646460008201527f7265737300000000000000000000000000000000000000000000000000000000602082015250565b7f4552433732313a20617070726f766520746f2063616c6c657200000000000000600082015250565b7f4552433732313a206f70657261746f7220717565727920666f72206e6f6e657860008201527f697374656e7420746f6b656e0000000000000000000000000000000000000000602082015250565b7f4552433732313a20617070726f76652063616c6c6572206973206e6f74206f7760008201527f6e6572206e6f7220617070726f76656420666f7220616c6c0000000000000000602082015250565b7f4552433732313a2062616c616e636520717565727920666f7220746865207a6560008201527f726f206164647265737300000000000000000000000000000000000000000000602082015250565b7f4552433732313a206f776e657220717565727920666f72206e6f6e657869737460008201527f656e7420746f6b656e0000000000000000000000000000000000000000000000602082015250565b7f52414e444f4d5f4241434b47524f554e445f434f4c4f52000000000000000000600082015250565b7f45524337323155524953746f726167653a2055524920736574206f66206e6f6e60008201527f6578697374656e7420746f6b656e000000000000000000000000000000000000602082015250565b7f227d000000000000000000000000000000000000000000000000000000000000600082015250565b7f4552433732313a206d696e7420746f20746865207a65726f2061646472657373600082015250565b7f45524337323155524953746f726167653a2055524920717565727920666f722060008201527f6e6f6e6578697374656e7420746f6b656e000000000000000000000000000000602082015250565b7f434c415353000000000000000000000000000000000000000000000000000000600082015250565b7f4552433732313a20617070726f76656420717565727920666f72206e6f6e657860008201527f697374656e7420746f6b656e0000000000000000000000000000000000000000602082015250565b7f4552433732314d657461646174613a2055524920717565727920666f72206e6f60008201527f6e6578697374656e7420746f6b656e0000000000000000000000000000000000602082015250565b7f7b226e616d65223a202200000000000000000000000000000000000000000000600082015250565b7f4552433732313a20617070726f76616c20746f2063757272656e74206f776e6560008201527f7200000000000000000000000000000000000000000000000000000000000000602082015250565b7f646174613a6170706c69636174696f6e2f6a736f6e3b6261736536342c000000600082015250565b7f3c2f746578743e3c2f673e3c2f7376673e000000000000000000000000000000600082015250565b7f4552433732313a207472616e736665722063616c6c6572206973206e6f74206f60008201527f776e6572206e6f7220617070726f766564000000000000000000000000000000602082015250565b7f4c4153545f4e414d450000000000000000000000000000000000000000000000600082015250565b7f222c20226465736372697074696f6e223a2022436861726163746572206e616d60008201527f652047656e65726174696f6e20222c2022696d616765223a2022646174613a6960208201527f6d6167652f7376672b786d6c3b6261736536342c000000000000000000000000604082015250565b613f8c81613663565b8114613f9757600080fd5b50565b613fa381613675565b8114613fae57600080fd5b50565b613fba81613681565b8114613fc557600080fd5b50565b613fd1816136cd565b8114613fdc57600080fd5b5056fe416e204e465420772f20494420257320686173206265656e206d696e74656420746f2025734142434445464748494a4b4c4d4e4f505152535455565758595a6162636465666768696a6b6c6d6e6f707172737475767778797a303132333435363738392b2fa2646970667358221220a422010ea28328a711d6723b5d132f461f0143289225b8be216bdbb673c636f064736f6c634300080400333c7376672069643d2776697375616c272076696577426f783d273020302039303020363030272077696474683d2739303027206865696768743d273630302720786d6c6e733d27687474703a2f2f7777772e77332e6f72672f323030302f7376672720786d6c6e733a786c696e6b3d27687474703a2f2f7777772e77332e6f72672f313939392f786c696e6b272076657273696f6e3d27312e31273e3c7265637420783d27302720793d2730272077696474683d2739303027206865696768743d27363030272066696c6c3d2723273e3c636972636c6520723d27313437272063783d27353335272063793d27353432273e3c2f636972636c653e3c636972636c6520723d273833272063783d27353530272063793d27313230273e3c2f636972636c653e3c636972636c6520723d273832272063783d27313230272063793d27313131273e3c2f636972636c653e3c636972636c6520723d273835272063783d27383936272063793d27343238273e3c2f636972636c653e3c636972636c6520723d27313432272063783d273734272063793d27353237273e3c2f636972636c653e3c636972636c6520723d273937272063783d27383533272063793d273536273e3c2f636972636c653e3c7465787420783d273430252720793d273530252720636c6173733d27626173652720646f6d696e616e742d626173656c696e653d276d6964646c652720746578742d616e63686f723d276d6964646c652720666f6e742d73697a653d2733656d273e",
  "linkReferences": {},
  "deployedLinkReferences": {}
}