{
  "_format": "hh-sol-artifact-1",
  "contractName": "SFT",
  "sourceName": "contracts/SFT.sol",
  "abi": [
    {
      "inputs": [],
      "stateMutability": "nonpayable",
      "type": "constructor"
    },
    {
      "anonymous": false,
      "inputs": [
        {
          "indexed": true,
          "internalType": "address",
          "name": "account",
          "type": "address"
        },
        {
          "indexed": true,
          "internalType": "address",
          "name": "operator",
          "type": "address"
        },
        {
          "indexed": false,
          "internalType": "bool",
          "name": "approved",
          "type": "bool"
        }
      ],
      "name": "ApprovalForAll",
      "type": "event"
    },
    {
      "anonymous": false,
      "inputs": [
        {
          "indexed": true,
          "internalType": "address",
          "name": "previousOwner",
          "type": "address"
        },
        {
          "indexed": true,
          "internalType": "address",
          "name": "newOwner",
          "type": "address"
        }
      ],
      "name": "OwnershipTransferred",
      "type": "event"
    },
    {
      "anonymous": false,
      "inputs": [
        {
          "indexed": true,
          "internalType": "address",
          "name": "operator",
          "type": "address"
        },
        {
          "indexed": true,
          "internalType": "address",
          "name": "from",
          "type": "address"
        },
        {
          "indexed": true,
          "internalType": "address",
          "name": "to",
          "type": "address"
        },
        {
          "indexed": false,
          "internalType": "uint256[]",
          "name": "ids",
          "type": "uint256[]"
        },
        {
          "indexed": false,
          "internalType": "uint256[]",
          "name": "values",
          "type": "uint256[]"
        }
      ],
      "name": "TransferBatch",
      "type": "event"
    },
    {
      "anonymous": false,
      "inputs": [
        {
          "indexed": true,
          "internalType": "address",
          "name": "operator",
          "type": "address"
        },
        {
          "indexed": true,
          "internalType": "address",
          "name": "from",
          "type": "address"
        },
        {
          "indexed": true,
          "internalType": "address",
          "name": "to",
          "type": "address"
        },
        {
          "indexed": false,
          "internalType": "uint256",
          "name": "id",
          "type": "uint256"
        },
        {
          "indexed": false,
          "internalType": "uint256",
          "name": "value",
          "type": "uint256"
        }
      ],
      "name": "TransferSingle",
      "type": "event"
    },
    {
      "anonymous": false,
      "inputs": [
        {
          "indexed": false,
          "internalType": "string",
          "name": "value",
          "type": "string"
        },
        {
          "indexed": true,
          "internalType": "uint256",
          "name": "id",
          "type": "uint256"
        }
      ],
      "name": "URI",
      "type": "event"
    },
    {
      "inputs": [],
      "name": "_name",
      "outputs": [
        {
          "internalType": "string",
          "name": "",
          "type": "string"
        }
      ],
      "stateMutability": "view",
      "type": "function"
    },
    {
      "inputs": [],
      "name": "_symbol",
      "outputs": [
        {
          "internalType": "string",
          "name": "",
          "type": "string"
        }
      ],
      "stateMutability": "view",
      "type": "function"
    },
    {
      "inputs": [
        {
          "internalType": "address",
          "name": "account",
          "type": "address"
        },
        {
          "internalType": "uint256",
          "name": "id",
          "type": "uint256"
        }
      ],
      "name": "balanceOf",
      "outputs": [
        {
          "internalType": "uint256",
          "name": "",
          "type": "uint256"
        }
      ],
      "stateMutability": "view",
      "type": "function"
    },
    {
      "inputs": [
        {
          "internalType": "address[]",
          "name": "accounts",
          "type": "address[]"
        },
        {
          "internalType": "uint256[]",
          "name": "ids",
          "type": "uint256[]"
        }
      ],
      "name": "balanceOfBatch",
      "outputs": [
        {
          "internalType": "uint256[]",
          "name": "",
          "type": "uint256[]"
        }
      ],
      "stateMutability": "view",
      "type": "function"
    },
    {
      "inputs": [
        {
          "internalType": "uint256",
          "name": "_id",
          "type": "uint256"
        },
        {
          "internalType": "uint256",
          "name": "_amount",
          "type": "uint256"
        }
      ],
      "name": "burn",
      "outputs": [],
      "stateMutability": "nonpayable",
      "type": "function"
    },
    {
      "inputs": [
        {
          "internalType": "uint256[]",
          "name": "_ids",
          "type": "uint256[]"
        },
        {
          "internalType": "uint256[]",
          "name": "_amounts",
          "type": "uint256[]"
        }
      ],
      "name": "burnBatch",
      "outputs": [],
      "stateMutability": "nonpayable",
      "type": "function"
    },
    {
      "inputs": [
        {
          "internalType": "address",
          "name": "_from",
          "type": "address"
        },
        {
          "internalType": "uint256[]",
          "name": "_burnIds",
          "type": "uint256[]"
        },
        {
          "internalType": "uint256[]",
          "name": "_burnAmounts",
          "type": "uint256[]"
        },
        {
          "internalType": "uint256[]",
          "name": "_mintIds",
          "type": "uint256[]"
        },
        {
          "internalType": "uint256[]",
          "name": "_mintAmounts",
          "type": "uint256[]"
        }
      ],
      "name": "burnForMint",
      "outputs": [],
      "stateMutability": "nonpayable",
      "type": "function"
    },
    {
      "inputs": [
        {
          "internalType": "address",
          "name": "account",
          "type": "address"
        },
        {
          "internalType": "address",
          "name": "operator",
          "type": "address"
        }
      ],
      "name": "isApprovedForAll",
      "outputs": [
        {
          "internalType": "bool",
          "name": "",
          "type": "bool"
        }
      ],
      "stateMutability": "view",
      "type": "function"
    },
    {
      "inputs": [
        {
          "internalType": "address",
          "name": "_to",
          "type": "address"
        },
        {
          "internalType": "uint256",
          "name": "_id",
          "type": "uint256"
        },
        {
          "internalType": "uint256",
          "name": "_amount",
          "type": "uint256"
        }
      ],
      "name": "mint",
      "outputs": [],
      "stateMutability": "nonpayable",
      "type": "function"
    },
    {
      "inputs": [
        {
          "internalType": "address",
          "name": "_to",
          "type": "address"
        },
        {
          "internalType": "uint256[]",
          "name": "_ids",
          "type": "uint256[]"
        },
        {
          "internalType": "uint256[]",
          "name": "_amounts",
          "type": "uint256[]"
        }
      ],
      "name": "mintBatch",
      "outputs": [],
      "stateMutability": "nonpayable",
      "type": "function"
    },
    {
      "inputs": [],
      "name": "owner",
      "outputs": [
        {
          "internalType": "address",
          "name": "",
          "type": "address"
        }
      ],
      "stateMutability": "view",
      "type": "function"
    },
    {
      "inputs": [],
      "name": "renounceOwnership",
      "outputs": [],
      "stateMutability": "nonpayable",
      "type": "function"
    },
    {
      "inputs": [
        {
          "internalType": "address",
          "name": "from",
          "type": "address"
        },
        {
          "internalType": "address",
          "name": "to",
          "type": "address"
        },
        {
          "internalType": "uint256[]",
          "name": "ids",
          "type": "uint256[]"
        },
        {
          "internalType": "uint256[]",
          "name": "amounts",
          "type": "uint256[]"
        },
        {
          "internalType": "bytes",
          "name": "data",
          "type": "bytes"
        }
      ],
      "name": "safeBatchTransferFrom",
      "outputs": [],
      "stateMutability": "nonpayable",
      "type": "function"
    },
    {
      "inputs": [
        {
          "internalType": "address",
          "name": "from",
          "type": "address"
        },
        {
          "internalType": "address",
          "name": "to",
          "type": "address"
        },
        {
          "internalType": "uint256",
          "name": "id",
          "type": "uint256"
        },
        {
          "internalType": "uint256",
          "name": "amount",
          "type": "uint256"
        },
        {
          "internalType": "bytes",
          "name": "data",
          "type": "bytes"
        }
      ],
      "name": "safeTransferFrom",
      "outputs": [],
      "stateMutability": "nonpayable",
      "type": "function"
    },
    {
      "inputs": [
        {
          "internalType": "address",
          "name": "operator",
          "type": "address"
        },
        {
          "internalType": "bool",
          "name": "approved",
          "type": "bool"
        }
      ],
      "name": "setApprovalForAll",
      "outputs": [],
      "stateMutability": "nonpayable",
      "type": "function"
    },
    {
      "inputs": [
        {
          "internalType": "uint256",
          "name": "_id",
          "type": "uint256"
        },
        {
          "internalType": "string",
          "name": "_uri",
          "type": "string"
        }
      ],
      "name": "setURI",
      "outputs": [],
      "stateMutability": "nonpayable",
      "type": "function"
    },
    {
      "inputs": [
        {
          "internalType": "bytes4",
          "name": "interfaceId",
          "type": "bytes4"
        }
      ],
      "name": "supportsInterface",
      "outputs": [
        {
          "internalType": "bool",
          "name": "",
          "type": "bool"
        }
      ],
      "stateMutability": "view",
      "type": "function"
    },
    {
      "inputs": [
        {
          "internalType": "uint256",
          "name": "",
          "type": "uint256"
        }
      ],
      "name": "tokenURI",
      "outputs": [
        {
          "internalType": "string",
          "name": "",
          "type": "string"
        }
      ],
      "stateMutability": "view",
      "type": "function"
    },
    {
      "inputs": [
        {
          "internalType": "address",
          "name": "newOwner",
          "type": "address"
        }
      ],
      "name": "transferOwnership",
      "outputs": [],
      "stateMutability": "nonpayable",
      "type": "function"
    },
    {
      "inputs": [
        {
          "internalType": "uint256",
          "name": "_id",
          "type": "uint256"
        }
      ],
      "name": "uri",
      "outputs": [
        {
          "internalType": "string",
          "name": "",
          "type": "string"
        }
      ],
      "stateMutability": "view",
      "type": "function"
    }
  ],
  "bytecode": "0x60806040523480156200001157600080fd5b50604051806060016040528060358152602001620041cc603591396200003d816200006460201b60201c565b506200005e620000526200008060201b60201c565b6200008860201b60201c565b62000263565b80600290805190602001906200007c9291906200014e565b5050565b600033905090565b6000600360009054906101000a900473ffffffffffffffffffffffffffffffffffffffff16905081600360006101000a81548173ffffffffffffffffffffffffffffffffffffffff021916908373ffffffffffffffffffffffffffffffffffffffff1602179055508173ffffffffffffffffffffffffffffffffffffffff168173ffffffffffffffffffffffffffffffffffffffff167f8be0079c531659141344cd1fd0a4f28419497f9722a3daafe3b4186f6b6457e060405160405180910390a35050565b8280546200015c90620001fe565b90600052602060002090601f016020900481019282620001805760008555620001cc565b82601f106200019b57805160ff1916838001178555620001cc565b82800160010185558215620001cc579182015b82811115620001cb578251825591602001919060010190620001ae565b5b509050620001db9190620001df565b5090565b5b80821115620001fa576000816000905550600101620001e0565b5090565b600060028204905060018216806200021757607f821691505b602082108114156200022e576200022d62000234565b5b50919050565b7f4e487b7100000000000000000000000000000000000000000000000000000000600052602260045260246000fd5b613f5980620002736000396000f3fe608060405234801561001057600080fd5b506004361061012b5760003560e01c80638da5cb5b116100ad578063d28d885211610071578063d28d88521461032a578063d81d0a1514610348578063e985e9c514610364578063f242432a14610394578063f2fde38b146103b05761012b565b80638da5cb5b14610286578063a22cb465146102a4578063b09f1266146102c0578063b390c0ab146102de578063c87b56dd146102fa5761012b565b80634e1273f4116100f45780634e1273f4146101f8578063510f410414610228578063715018a61461024457806383ca4b6f1461024e578063862440e21461026a5761012b565b8062fdd58e1461013057806301ffc9a7146101605780630e89341c14610190578063156e29f6146101c05780632eb2c2d6146101dc575b600080fd5b61014a60048036038101906101459190612cab565b6103cc565b604051610157919061359d565b60405180910390f35b61017a60048036038101906101759190612e0e565b610495565b6040516101879190613380565b60405180910390f35b6101aa60048036038101906101a59190612e60565b610577565b6040516101b7919061339b565b60405180910390f35b6101da60048036038101906101d59190612ce7565b61061c565b005b6101f660048036038101906101f191906129cb565b6106b8565b005b610212600480360381019061020d9190612d36565b610759565b60405161021f9190613327565b60405180910390f35b610242600480360381019061023d9190612b98565b61090a565b005b61024c6109b3565b005b61026860048036038101906102639190612da2565b610a3b565b005b610284600480360381019061027f9190612e89565b610a4a565b005b61028e610b2a565b60405161029b919061324a565b60405180910390f35b6102be60048036038101906102b99190612c6f565b610b54565b005b6102c8610b6a565b6040516102d5919061339b565b60405180910390f35b6102f860048036038101906102f39190612edd565b610bf8565b005b610314600480360381019061030f9190612e60565b610c07565b604051610321919061339b565b60405180910390f35b610332610ca7565b60405161033f919061339b565b60405180910390f35b610362600480360381019061035d9190612b19565b610d35565b005b61037e6004803603810190610379919061298f565b610dd1565b60405161038b9190613380565b60405180910390f35b6103ae60048036038101906103a99190612a8a565b610e65565b005b6103ca60048036038101906103c59190612966565b610f06565b005b60008073ffffffffffffffffffffffffffffffffffffffff168373ffffffffffffffffffffffffffffffffffffffff16141561043d576040517f08c379a0000000000000000000000000000000000000000000000000000000008152600401610434906133fd565b60405180910390fd5b60008083815260200190815260200160002060008473ffffffffffffffffffffffffffffffffffffffff1673ffffffffffffffffffffffffffffffffffffffff16815260200190815260200160002054905092915050565b60007fd9b67a26000000000000000000000000000000000000000000000000000000007bffffffffffffffffffffffffffffffffffffffffffffffffffffffff1916827bffffffffffffffffffffffffffffffffffffffffffffffffffffffff1916148061056057507f0e89341c000000000000000000000000000000000000000000000000000000007bffffffffffffffffffffffffffffffffffffffffffffffffffffffff1916827bffffffffffffffffffffffffffffffffffffffffffffffffffffffff1916145b80610570575061056f82610ffe565b5b9050919050565b60606006600083815260200190815260200160002080546105979061383d565b80601f01602080910402602001604051908101604052809291908181526020018280546105c39061383d565b80156106105780601f106105e557610100808354040283529160200191610610565b820191906000526020600020905b8154815290600101906020018083116105f357829003601f168201915b50505050509050919050565b610624611068565b73ffffffffffffffffffffffffffffffffffffffff16610642610b2a565b73ffffffffffffffffffffffffffffffffffffffff1614610698576040517f08c379a000000000000000000000000000000000000000000000000000000000815260040161068f906134fd565b60405180910390fd5b6106b383838360405180602001604052806000815250611070565b505050565b6106c0611068565b73ffffffffffffffffffffffffffffffffffffffff168573ffffffffffffffffffffffffffffffffffffffff161480610706575061070585610700611068565b610dd1565b5b610745576040517f08c379a000000000000000000000000000000000000000000000000000000000815260040161073c9061349d565b60405180910390fd5b6107528585858585611206565b5050505050565b6060815183511461079f576040517f08c379a00000000000000000000000000000000000000000000000000000000081526004016107969061353d565b60405180910390fd5b6000835167ffffffffffffffff8111156107e2577f4e487b7100000000000000000000000000000000000000000000000000000000600052604160045260246000fd5b6040519080825280602002602001820160405280156108105781602001602082028036833780820191505090505b50905060005b84518110156108ff576108a985828151811061085b577f4e487b7100000000000000000000000000000000000000000000000000000000600052603260045260246000fd5b602002602001015185838151811061089c577f4e487b7100000000000000000000000000000000000000000000000000000000600052603260045260246000fd5b60200260200101516103cc565b8282815181106108e2577f4e487b7100000000000000000000000000000000000000000000000000000000600052603260045260246000fd5b602002602001018181525050806108f8906138a0565b9050610816565b508091505092915050565b610912611068565b73ffffffffffffffffffffffffffffffffffffffff16610930610b2a565b73ffffffffffffffffffffffffffffffffffffffff1614610986576040517f08c379a000000000000000000000000000000000000000000000000000000000815260040161097d906134fd565b60405180910390fd5b610991858585611566565b6109ac85838360405180602001604052806000815250611863565b5050505050565b6109bb611068565b73ffffffffffffffffffffffffffffffffffffffff166109d9610b2a565b73ffffffffffffffffffffffffffffffffffffffff1614610a2f576040517f08c379a0000000000000000000000000000000000000000000000000000000008152600401610a26906134fd565b60405180910390fd5b610a396000611acd565b565b610a46338383611566565b5050565b610a52611068565b73ffffffffffffffffffffffffffffffffffffffff16610a70610b2a565b73ffffffffffffffffffffffffffffffffffffffff1614610ac6576040517f08c379a0000000000000000000000000000000000000000000000000000000008152600401610abd906134fd565b60405180910390fd5b80600660008481526020019081526020016000209080519060200190610aed92919061265e565b50817f6bb7ff708619ba0610cba295a58592e0451dee2622938c8755667688daf3529b82604051610b1e919061339b565b60405180910390a25050565b6000600360009054906101000a900473ffffffffffffffffffffffffffffffffffffffff16905090565b610b66610b5f611068565b8383611b93565b5050565b60058054610b779061383d565b80601f0160208091040260200160405190810160405280929190818152602001828054610ba39061383d565b8015610bf05780601f10610bc557610100808354040283529160200191610bf0565b820191906000526020600020905b815481529060010190602001808311610bd357829003601f168201915b505050505081565b610c03338383611d00565b5050565b60066020528060005260406000206000915090508054610c269061383d565b80601f0160208091040260200160405190810160405280929190818152602001828054610c529061383d565b8015610c9f5780601f10610c7457610100808354040283529160200191610c9f565b820191906000526020600020905b815481529060010190602001808311610c8257829003601f168201915b505050505081565b60048054610cb49061383d565b80601f0160208091040260200160405190810160405280929190818152602001828054610ce09061383d565b8015610d2d5780601f10610d0257610100808354040283529160200191610d2d565b820191906000526020600020905b815481529060010190602001808311610d1057829003601f168201915b505050505081565b610d3d611068565b73ffffffffffffffffffffffffffffffffffffffff16610d5b610b2a565b73ffffffffffffffffffffffffffffffffffffffff1614610db1576040517f08c379a0000000000000000000000000000000000000000000000000000000008152600401610da8906134fd565b60405180910390fd5b610dcc83838360405180602001604052806000815250611863565b505050565b6000600160008473ffffffffffffffffffffffffffffffffffffffff1673ffffffffffffffffffffffffffffffffffffffff16815260200190815260200160002060008373ffffffffffffffffffffffffffffffffffffffff1673ffffffffffffffffffffffffffffffffffffffff16815260200190815260200160002060009054906101000a900460ff16905092915050565b610e6d611068565b73ffffffffffffffffffffffffffffffffffffffff168573ffffffffffffffffffffffffffffffffffffffff161480610eb35750610eb285610ead611068565b610dd1565b5b610ef2576040517f08c379a0000000000000000000000000000000000000000000000000000000008152600401610ee99061345d565b60405180910390fd5b610eff8585858585611f1d565b5050505050565b610f0e611068565b73ffffffffffffffffffffffffffffffffffffffff16610f2c610b2a565b73ffffffffffffffffffffffffffffffffffffffff1614610f82576040517f08c379a0000000000000000000000000000000000000000000000000000000008152600401610f79906134fd565b60405180910390fd5b600073ffffffffffffffffffffffffffffffffffffffff168173ffffffffffffffffffffffffffffffffffffffff161415610ff2576040517f08c379a0000000000000000000000000000000000000000000000000000000008152600401610fe99061341d565b60405180910390fd5b610ffb81611acd565b50565b60007f01ffc9a7000000000000000000000000000000000000000000000000000000007bffffffffffffffffffffffffffffffffffffffffffffffffffffffff1916827bffffffffffffffffffffffffffffffffffffffffffffffffffffffff1916149050919050565b600033905090565b600073ffffffffffffffffffffffffffffffffffffffff168473ffffffffffffffffffffffffffffffffffffffff1614156110e0576040517f08c379a00000000000000000000000000000000000000000000000000000000081526004016110d79061357d565b60405180910390fd5b60006110ea611068565b905061110b816000876110fc8861219f565b6111058861219f565b87612265565b8260008086815260200190815260200160002060008773ffffffffffffffffffffffffffffffffffffffff1673ffffffffffffffffffffffffffffffffffffffff168152602001908152602001600020600082825461116a9190613731565b925050819055508473ffffffffffffffffffffffffffffffffffffffff16600073ffffffffffffffffffffffffffffffffffffffff168273ffffffffffffffffffffffffffffffffffffffff167fc3d58168c5ae7397731d063d5bbf3d657854427343f4c083240f7aacaa2d0f6287876040516111e89291906135b8565b60405180910390a46111ff8160008787878761226d565b5050505050565b815183511461124a576040517f08c379a00000000000000000000000000000000000000000000000000000000081526004016112419061355d565b60405180910390fd5b600073ffffffffffffffffffffffffffffffffffffffff168473ffffffffffffffffffffffffffffffffffffffff1614156112ba576040517f08c379a00000000000000000000000000000000000000000000000000000000081526004016112b19061347d565b60405180910390fd5b60006112c4611068565b90506112d4818787878787612265565b60005b84518110156114d157600085828151811061131b577f4e487b7100000000000000000000000000000000000000000000000000000000600052603260045260246000fd5b602002602001015190506000858381518110611360577f4e487b7100000000000000000000000000000000000000000000000000000000600052603260045260246000fd5b60200260200101519050600080600084815260200190815260200160002060008b73ffffffffffffffffffffffffffffffffffffffff1673ffffffffffffffffffffffffffffffffffffffff16815260200190815260200160002054905081811015611401576040517f08c379a00000000000000000000000000000000000000000000000000000000081526004016113f8906134dd565b60405180910390fd5b81810360008085815260200190815260200160002060008c73ffffffffffffffffffffffffffffffffffffffff1673ffffffffffffffffffffffffffffffffffffffff168152602001908152602001600020819055508160008085815260200190815260200160002060008b73ffffffffffffffffffffffffffffffffffffffff1673ffffffffffffffffffffffffffffffffffffffff16815260200190815260200160002060008282546114b69190613731565b92505081905550505050806114ca906138a0565b90506112d7565b508473ffffffffffffffffffffffffffffffffffffffff168673ffffffffffffffffffffffffffffffffffffffff168273ffffffffffffffffffffffffffffffffffffffff167f4a39dc06d4c0dbc64b70af90fd698a233a518aa5d07e595d983b8c0526c8f7fb8787604051611548929190613349565b60405180910390a461155e818787878787612454565b505050505050565b600073ffffffffffffffffffffffffffffffffffffffff168373ffffffffffffffffffffffffffffffffffffffff1614156115d6576040517f08c379a00000000000000000000000000000000000000000000000000000000081526004016115cd906134bd565b60405180910390fd5b805182511461161a576040517f08c379a00000000000000000000000000000000000000000000000000000000081526004016116119061355d565b60405180910390fd5b6000611624611068565b905061164481856000868660405180602001604052806000815250612265565b60005b83518110156117dd57600084828151811061168b577f4e487b7100000000000000000000000000000000000000000000000000000000600052603260045260246000fd5b6020026020010151905060008483815181106116d0577f4e487b7100000000000000000000000000000000000000000000000000000000600052603260045260246000fd5b60200260200101519050600080600084815260200190815260200160002060008973ffffffffffffffffffffffffffffffffffffffff1673ffffffffffffffffffffffffffffffffffffffff16815260200190815260200160002054905081811015611771576040517f08c379a00000000000000000000000000000000000000000000000000000000081526004016117689061343d565b60405180910390fd5b81810360008085815260200190815260200160002060008a73ffffffffffffffffffffffffffffffffffffffff1673ffffffffffffffffffffffffffffffffffffffff1681526020019081526020016000208190555050505080806117d5906138a0565b915050611647565b50600073ffffffffffffffffffffffffffffffffffffffff168473ffffffffffffffffffffffffffffffffffffffff168273ffffffffffffffffffffffffffffffffffffffff167f4a39dc06d4c0dbc64b70af90fd698a233a518aa5d07e595d983b8c0526c8f7fb8686604051611855929190613349565b60405180910390a450505050565b600073ffffffffffffffffffffffffffffffffffffffff168473ffffffffffffffffffffffffffffffffffffffff1614156118d3576040517f08c379a00000000000000000000000000000000000000000000000000000000081526004016118ca9061357d565b60405180910390fd5b8151835114611917576040517f08c379a000000000000000000000000000000000000000000000000000000000815260040161190e9061355d565b60405180910390fd5b6000611921611068565b905061193281600087878787612265565b60005b8451811015611a3757838181518110611977577f4e487b7100000000000000000000000000000000000000000000000000000000600052603260045260246000fd5b60200260200101516000808784815181106119bb577f4e487b7100000000000000000000000000000000000000000000000000000000600052603260045260246000fd5b6020026020010151815260200190815260200160002060008873ffffffffffffffffffffffffffffffffffffffff1673ffffffffffffffffffffffffffffffffffffffff1681526020019081526020016000206000828254611a1d9190613731565b925050819055508080611a2f906138a0565b915050611935565b508473ffffffffffffffffffffffffffffffffffffffff16600073ffffffffffffffffffffffffffffffffffffffff168273ffffffffffffffffffffffffffffffffffffffff167f4a39dc06d4c0dbc64b70af90fd698a233a518aa5d07e595d983b8c0526c8f7fb8787604051611aaf929190613349565b60405180910390a4611ac681600087878787612454565b5050505050565b6000600360009054906101000a900473ffffffffffffffffffffffffffffffffffffffff16905081600360006101000a81548173ffffffffffffffffffffffffffffffffffffffff021916908373ffffffffffffffffffffffffffffffffffffffff1602179055508173ffffffffffffffffffffffffffffffffffffffff168173ffffffffffffffffffffffffffffffffffffffff167f8be0079c531659141344cd1fd0a4f28419497f9722a3daafe3b4186f6b6457e060405160405180910390a35050565b8173ffffffffffffffffffffffffffffffffffffffff168373ffffffffffffffffffffffffffffffffffffffff161415611c02576040517f08c379a0000000000000000000000000000000000000000000000000000000008152600401611bf99061351d565b60405180910390fd5b80600160008573ffffffffffffffffffffffffffffffffffffffff1673ffffffffffffffffffffffffffffffffffffffff16815260200190815260200160002060008473ffffffffffffffffffffffffffffffffffffffff1673ffffffffffffffffffffffffffffffffffffffff16815260200190815260200160002060006101000a81548160ff0219169083151502179055508173ffffffffffffffffffffffffffffffffffffffff168373ffffffffffffffffffffffffffffffffffffffff167f17307eab39ab6107e8899845ad3d59bd9653f200f220920489ca2b5937696c3183604051611cf39190613380565b60405180910390a3505050565b600073ffffffffffffffffffffffffffffffffffffffff168373ffffffffffffffffffffffffffffffffffffffff161415611d70576040517f08c379a0000000000000000000000000000000000000000000000000000000008152600401611d67906134bd565b60405180910390fd5b6000611d7a611068565b9050611daa81856000611d8c8761219f565b611d958761219f565b60405180602001604052806000815250612265565b600080600085815260200190815260200160002060008673ffffffffffffffffffffffffffffffffffffffff1673ffffffffffffffffffffffffffffffffffffffff16815260200190815260200160002054905082811015611e41576040517f08c379a0000000000000000000000000000000000000000000000000000000008152600401611e389061343d565b60405180910390fd5b82810360008086815260200190815260200160002060008773ffffffffffffffffffffffffffffffffffffffff1673ffffffffffffffffffffffffffffffffffffffff16815260200190815260200160002081905550600073ffffffffffffffffffffffffffffffffffffffff168573ffffffffffffffffffffffffffffffffffffffff168373ffffffffffffffffffffffffffffffffffffffff167fc3d58168c5ae7397731d063d5bbf3d657854427343f4c083240f7aacaa2d0f628787604051611f0e9291906135b8565b60405180910390a45050505050565b600073ffffffffffffffffffffffffffffffffffffffff168473ffffffffffffffffffffffffffffffffffffffff161415611f8d576040517f08c379a0000000000000000000000000000000000000000000000000000000008152600401611f849061347d565b60405180910390fd5b6000611f97611068565b9050611fb7818787611fa88861219f565b611fb18861219f565b87612265565b600080600086815260200190815260200160002060008873ffffffffffffffffffffffffffffffffffffffff1673ffffffffffffffffffffffffffffffffffffffff1681526020019081526020016000205490508381101561204e576040517f08c379a0000000000000000000000000000000000000000000000000000000008152600401612045906134dd565b60405180910390fd5b83810360008087815260200190815260200160002060008973ffffffffffffffffffffffffffffffffffffffff1673ffffffffffffffffffffffffffffffffffffffff168152602001908152602001600020819055508360008087815260200190815260200160002060008873ffffffffffffffffffffffffffffffffffffffff1673ffffffffffffffffffffffffffffffffffffffff16815260200190815260200160002060008282546121039190613731565b925050819055508573ffffffffffffffffffffffffffffffffffffffff168773ffffffffffffffffffffffffffffffffffffffff168373ffffffffffffffffffffffffffffffffffffffff167fc3d58168c5ae7397731d063d5bbf3d657854427343f4c083240f7aacaa2d0f6288886040516121809291906135b8565b60405180910390a461219682888888888861226d565b50505050505050565b60606000600167ffffffffffffffff8111156121e4577f4e487b7100000000000000000000000000000000000000000000000000000000600052604160045260246000fd5b6040519080825280602002602001820160405280156122125781602001602082028036833780820191505090505b5090508281600081518110612250577f4e487b7100000000000000000000000000000000000000000000000000000000600052603260045260246000fd5b60200260200101818152505080915050919050565b505050505050565b61228c8473ffffffffffffffffffffffffffffffffffffffff1661263b565b1561244c578373ffffffffffffffffffffffffffffffffffffffff1663f23a6e6187878686866040518663ffffffff1660e01b81526004016122d29594939291906132cd565b602060405180830381600087803b1580156122ec57600080fd5b505af192505050801561231d57506040513d601f19601f8201168201806040525081019061231a9190612e37565b60015b6123c357612329613976565b806308c379a01415612386575061233e613e31565b806123495750612388565b806040517f08c379a000000000000000000000000000000000000000000000000000000000815260040161237d919061339b565b60405180910390fd5b505b6040517f08c379a00000000000000000000000000000000000000000000000000000000081526004016123ba906133bd565b60405180910390fd5b63f23a6e6160e01b7bffffffffffffffffffffffffffffffffffffffffffffffffffffffff1916817bffffffffffffffffffffffffffffffffffffffffffffffffffffffff19161461244a576040517f08c379a0000000000000000000000000000000000000000000000000000000008152600401612441906133dd565b60405180910390fd5b505b505050505050565b6124738473ffffffffffffffffffffffffffffffffffffffff1661263b565b15612633578373ffffffffffffffffffffffffffffffffffffffff1663bc197c8187878686866040518663ffffffff1660e01b81526004016124b9959493929190613265565b602060405180830381600087803b1580156124d357600080fd5b505af192505050801561250457506040513d601f19601f820116820180604052508101906125019190612e37565b60015b6125aa57612510613976565b806308c379a0141561256d5750612525613e31565b80612530575061256f565b806040517f08c379a0000000000000000000000000000000000000000000000000000000008152600401612564919061339b565b60405180910390fd5b505b6040517f08c379a00000000000000000000000000000000000000000000000000000000081526004016125a1906133bd565b60405180910390fd5b63bc197c8160e01b7bffffffffffffffffffffffffffffffffffffffffffffffffffffffff1916817bffffffffffffffffffffffffffffffffffffffffffffffffffffffff191614612631576040517f08c379a0000000000000000000000000000000000000000000000000000000008152600401612628906133dd565b60405180910390fd5b505b505050505050565b6000808273ffffffffffffffffffffffffffffffffffffffff163b119050919050565b82805461266a9061383d565b90600052602060002090601f01602090048101928261268c57600085556126d3565b82601f106126a557805160ff19168380011785556126d3565b828001600101855582156126d3579182015b828111156126d25782518255916020019190600101906126b7565b5b5090506126e091906126e4565b5090565b5b808211156126fd5760008160009055506001016126e5565b5090565b600061271461270f84613606565b6135e1565b9050808382526020820190508285602086028201111561273357600080fd5b60005b8581101561276357816127498882612855565b845260208401935060208301925050600181019050612736565b5050509392505050565b600061278061277b84613632565b6135e1565b9050808382526020820190508285602086028201111561279f57600080fd5b60005b858110156127cf57816127b58882612951565b8452602084019350602083019250506001810190506127a2565b5050509392505050565b60006127ec6127e78461365e565b6135e1565b90508281526020810184848401111561280457600080fd5b61280f8482856137fb565b509392505050565b600061282a6128258461368f565b6135e1565b90508281526020810184848401111561284257600080fd5b61284d8482856137fb565b509392505050565b60008135905061286481613ec7565b92915050565b600082601f83011261287b57600080fd5b813561288b848260208601612701565b91505092915050565b600082601f8301126128a557600080fd5b81356128b584826020860161276d565b91505092915050565b6000813590506128cd81613ede565b92915050565b6000813590506128e281613ef5565b92915050565b6000815190506128f781613ef5565b92915050565b600082601f83011261290e57600080fd5b813561291e8482602086016127d9565b91505092915050565b600082601f83011261293857600080fd5b8135612948848260208601612817565b91505092915050565b60008135905061296081613f0c565b92915050565b60006020828403121561297857600080fd5b600061298684828501612855565b91505092915050565b600080604083850312156129a257600080fd5b60006129b085828601612855565b92505060206129c185828601612855565b9150509250929050565b600080600080600060a086880312156129e357600080fd5b60006129f188828901612855565b9550506020612a0288828901612855565b945050604086013567ffffffffffffffff811115612a1f57600080fd5b612a2b88828901612894565b935050606086013567ffffffffffffffff811115612a4857600080fd5b612a5488828901612894565b925050608086013567ffffffffffffffff811115612a7157600080fd5b612a7d888289016128fd565b9150509295509295909350565b600080600080600060a08688031215612aa257600080fd5b6000612ab088828901612855565b9550506020612ac188828901612855565b9450506040612ad288828901612951565b9350506060612ae388828901612951565b925050608086013567ffffffffffffffff811115612b0057600080fd5b612b0c888289016128fd565b9150509295509295909350565b600080600060608486031215612b2e57600080fd5b6000612b3c86828701612855565b935050602084013567ffffffffffffffff811115612b5957600080fd5b612b6586828701612894565b925050604084013567ffffffffffffffff811115612b8257600080fd5b612b8e86828701612894565b9150509250925092565b600080600080600060a08688031215612bb057600080fd5b6000612bbe88828901612855565b955050602086013567ffffffffffffffff811115612bdb57600080fd5b612be788828901612894565b945050604086013567ffffffffffffffff811115612c0457600080fd5b612c1088828901612894565b935050606086013567ffffffffffffffff811115612c2d57600080fd5b612c3988828901612894565b925050608086013567ffffffffffffffff811115612c5657600080fd5b612c6288828901612894565b9150509295509295909350565b60008060408385031215612c8257600080fd5b6000612c9085828601612855565b9250506020612ca1858286016128be565b9150509250929050565b60008060408385031215612cbe57600080fd5b6000612ccc85828601612855565b9250506020612cdd85828601612951565b9150509250929050565b600080600060608486031215612cfc57600080fd5b6000612d0a86828701612855565b9350506020612d1b86828701612951565b9250506040612d2c86828701612951565b9150509250925092565b60008060408385031215612d4957600080fd5b600083013567ffffffffffffffff811115612d6357600080fd5b612d6f8582860161286a565b925050602083013567ffffffffffffffff811115612d8c57600080fd5b612d9885828601612894565b9150509250929050565b60008060408385031215612db557600080fd5b600083013567ffffffffffffffff811115612dcf57600080fd5b612ddb85828601612894565b925050602083013567ffffffffffffffff811115612df857600080fd5b612e0485828601612894565b9150509250929050565b600060208284031215612e2057600080fd5b6000612e2e848285016128d3565b91505092915050565b600060208284031215612e4957600080fd5b6000612e57848285016128e8565b91505092915050565b600060208284031215612e7257600080fd5b6000612e8084828501612951565b91505092915050565b60008060408385031215612e9c57600080fd5b6000612eaa85828601612951565b925050602083013567ffffffffffffffff811115612ec757600080fd5b612ed385828601612927565b9150509250929050565b60008060408385031215612ef057600080fd5b6000612efe85828601612951565b9250506020612f0f85828601612951565b9150509250929050565b6000612f25838361322c565b60208301905092915050565b612f3a81613787565b82525050565b6000612f4b826136d0565b612f5581856136fe565b9350612f60836136c0565b8060005b83811015612f91578151612f788882612f19565b9750612f83836136f1565b925050600181019050612f64565b5085935050505092915050565b612fa781613799565b82525050565b6000612fb8826136db565b612fc2818561370f565b9350612fd281856020860161380a565b612fdb81613998565b840191505092915050565b6000612ff1826136e6565b612ffb8185613720565b935061300b81856020860161380a565b61301481613998565b840191505092915050565b600061302c603483613720565b9150613037826139b6565b604082019050919050565b600061304f602883613720565b915061305a82613a05565b604082019050919050565b6000613072602b83613720565b915061307d82613a54565b604082019050919050565b6000613095602683613720565b91506130a082613aa3565b604082019050919050565b60006130b8602483613720565b91506130c382613af2565b604082019050919050565b60006130db602983613720565b91506130e682613b41565b604082019050919050565b60006130fe602583613720565b915061310982613b90565b604082019050919050565b6000613121603283613720565b915061312c82613bdf565b604082019050919050565b6000613144602383613720565b915061314f82613c2e565b604082019050919050565b6000613167602a83613720565b915061317282613c7d565b604082019050919050565b600061318a602083613720565b915061319582613ccc565b602082019050919050565b60006131ad602983613720565b91506131b882613cf5565b604082019050919050565b60006131d0602983613720565b91506131db82613d44565b604082019050919050565b60006131f3602883613720565b91506131fe82613d93565b604082019050919050565b6000613216602183613720565b915061322182613de2565b604082019050919050565b613235816137f1565b82525050565b613244816137f1565b82525050565b600060208201905061325f6000830184612f31565b92915050565b600060a08201905061327a6000830188612f31565b6132876020830187612f31565b81810360408301526132998186612f40565b905081810360608301526132ad8185612f40565b905081810360808301526132c18184612fad565b90509695505050505050565b600060a0820190506132e26000830188612f31565b6132ef6020830187612f31565b6132fc604083018661323b565b613309606083018561323b565b818103608083015261331b8184612fad565b90509695505050505050565b600060208201905081810360008301526133418184612f40565b905092915050565b600060408201905081810360008301526133638185612f40565b905081810360208301526133778184612f40565b90509392505050565b60006020820190506133956000830184612f9e565b92915050565b600060208201905081810360008301526133b58184612fe6565b905092915050565b600060208201905081810360008301526133d68161301f565b9050919050565b600060208201905081810360008301526133f681613042565b9050919050565b6000602082019050818103600083015261341681613065565b9050919050565b6000602082019050818103600083015261343681613088565b9050919050565b60006020820190508181036000830152613456816130ab565b9050919050565b60006020820190508181036000830152613476816130ce565b9050919050565b60006020820190508181036000830152613496816130f1565b9050919050565b600060208201905081810360008301526134b681613114565b9050919050565b600060208201905081810360008301526134d681613137565b9050919050565b600060208201905081810360008301526134f68161315a565b9050919050565b600060208201905081810360008301526135168161317d565b9050919050565b60006020820190508181036000830152613536816131a0565b9050919050565b60006020820190508181036000830152613556816131c3565b9050919050565b60006020820190508181036000830152613576816131e6565b9050919050565b6000602082019050818103600083015261359681613209565b9050919050565b60006020820190506135b2600083018461323b565b92915050565b60006040820190506135cd600083018561323b565b6135da602083018461323b565b9392505050565b60006135eb6135fc565b90506135f7828261386f565b919050565b6000604051905090565b600067ffffffffffffffff82111561362157613620613947565b5b602082029050602081019050919050565b600067ffffffffffffffff82111561364d5761364c613947565b5b602082029050602081019050919050565b600067ffffffffffffffff82111561367957613678613947565b5b61368282613998565b9050602081019050919050565b600067ffffffffffffffff8211156136aa576136a9613947565b5b6136b382613998565b9050602081019050919050565b6000819050602082019050919050565b600081519050919050565b600081519050919050565b600081519050919050565b6000602082019050919050565b600082825260208201905092915050565b600082825260208201905092915050565b600082825260208201905092915050565b600061373c826137f1565b9150613747836137f1565b9250827fffffffffffffffffffffffffffffffffffffffffffffffffffffffffffffffff0382111561377c5761377b6138e9565b5b828201905092915050565b6000613792826137d1565b9050919050565b60008115159050919050565b60007fffffffff0000000000000000000000000000000000000000000000000000000082169050919050565b600073ffffffffffffffffffffffffffffffffffffffff82169050919050565b6000819050919050565b82818337600083830152505050565b60005b8381101561382857808201518184015260208101905061380d565b83811115613837576000848401525b50505050565b6000600282049050600182168061385557607f821691505b6020821081141561386957613868613918565b5b50919050565b61387882613998565b810181811067ffffffffffffffff8211171561389757613896613947565b5b80604052505050565b60006138ab826137f1565b91507fffffffffffffffffffffffffffffffffffffffffffffffffffffffffffffffff8214156138de576138dd6138e9565b5b600182019050919050565b7f4e487b7100000000000000000000000000000000000000000000000000000000600052601160045260246000fd5b7f4e487b7100000000000000000000000000000000000000000000000000000000600052602260045260246000fd5b7f4e487b7100000000000000000000000000000000000000000000000000000000600052604160045260246000fd5b600060033d11156139955760046000803e6139926000516139a9565b90505b90565b6000601f19601f8301169050919050565b60008160e01c9050919050565b7f455243313135353a207472616e7366657220746f206e6f6e204552433131353560008201527f526563656976657220696d706c656d656e746572000000000000000000000000602082015250565b7f455243313135353a204552433131353552656365697665722072656a6563746560008201527f6420746f6b656e73000000000000000000000000000000000000000000000000602082015250565b7f455243313135353a2062616c616e636520717565727920666f7220746865207a60008201527f65726f2061646472657373000000000000000000000000000000000000000000602082015250565b7f4f776e61626c653a206e6577206f776e657220697320746865207a65726f206160008201527f6464726573730000000000000000000000000000000000000000000000000000602082015250565b7f455243313135353a206275726e20616d6f756e7420657863656564732062616c60008201527f616e636500000000000000000000000000000000000000000000000000000000602082015250565b7f455243313135353a2063616c6c6572206973206e6f74206f776e6572206e6f7260008201527f20617070726f7665640000000000000000000000000000000000000000000000602082015250565b7f455243313135353a207472616e7366657220746f20746865207a65726f20616460008201527f6472657373000000000000000000000000000000000000000000000000000000602082015250565b7f455243313135353a207472616e736665722063616c6c6572206973206e6f742060008201527f6f776e6572206e6f7220617070726f7665640000000000000000000000000000602082015250565b7f455243313135353a206275726e2066726f6d20746865207a65726f206164647260008201527f6573730000000000000000000000000000000000000000000000000000000000602082015250565b7f455243313135353a20696e73756666696369656e742062616c616e636520666f60008201527f72207472616e7366657200000000000000000000000000000000000000000000602082015250565b7f4f776e61626c653a2063616c6c6572206973206e6f7420746865206f776e6572600082015250565b7f455243313135353a2073657474696e6720617070726f76616c2073746174757360008201527f20666f722073656c660000000000000000000000000000000000000000000000602082015250565b7f455243313135353a206163636f756e747320616e6420696473206c656e67746860008201527f206d69736d617463680000000000000000000000000000000000000000000000602082015250565b7f455243313135353a2069647320616e6420616d6f756e7473206c656e6774682060008201527f6d69736d61746368000000000000000000000000000000000000000000000000602082015250565b7f455243313135353a206d696e7420746f20746865207a65726f2061646472657360008201527f7300000000000000000000000000000000000000000000000000000000000000602082015250565b600060443d1015613e4157613ec4565b613e496135fc565b60043d036004823e80513d602482011167ffffffffffffffff82111715613e71575050613ec4565b808201805167ffffffffffffffff811115613e8f5750505050613ec4565b80602083010160043d038501811115613eac575050505050613ec4565b613ebb8260200185018661386f565b82955050505050505b90565b613ed081613787565b8114613edb57600080fd5b50565b613ee781613799565b8114613ef257600080fd5b50565b613efe816137a5565b8114613f0957600080fd5b50565b613f15816137f1565b8114613f2057600080fd5b5056fea2646970667358221220eb0589e107be5cc2b4d13be0d3f27a9fa5e27ab15419d98a9b1456bd67a7be4364736f6c6343000804003368747470733a2f2f6170692e6a736f6e62696e2e696f2f76332f71732f363265633262396135633134366436336361356632383866",
  "linkReferences": {},
  "deployedLinkReferences": {}
}